:10509500D0EEB5E7B3D8B5E7D1B9CFB5CAFDA3BA58
:1050A50000B7F8C9E4C1BF203220CFB5CAFDA3BA05
:1050B50000CEC2B6C8BCC6CBE3CFB5CAFDA3BA0005
:1050C500B7F8C9E4C1BF203120CFB5CAFDA3BA00E6
:1050D500B7C5B5E7B5E7C1F7CFB5CAFDA3BA00B304
:1050E500E4B5E7B5E7C1F7203220CFB5CAFDA3BACD
:1050F50000B3E4B5E7B5E7C1F7203120CFB5CAFD68
:10510500A3BA00B7F100CAC700B4F2D3A1BBFACE67
:10511500B4D7BCB1B8BAC32E2E2E0A0AB0B4C8B7DC
:10512500B6A8BCFCBCCCD0F82E0A0AB0B4C9E8D6E7
:10513500C3BCFCCDCBB3F6B4F2D3A12E00D5FDD4C0
:10514500DAB4F2D3A12E2E2E002564C4EA00B7F8F6
:10515500C9E4C1BF313A256420323A25646B570052
:10516500B3E4B5E7C1BF313A256420323A25646B13
:10517500414800B7C5B5E7C1BF3A25646B41480052
:10518500CEDED6B8B6A8CAB1B6CECAFDBEDD210000
:105195002564C4EA2562D4C200B7F8C9E4C1BF31A9
:1051A5003A256420323A25645700B3E4B5E7C1BF18
:1051B500313A256420323A2564414800B7C5B5E740
:1051C500C1BF3A2564414800C3BBD3D0D6B8B6A801
:1051D500CAFDBEDD210025622D25622D2562202513
:1051E500623A302025623A302025623A3000426129
:1051F50074743A256F20256F20256F56005261641F
:10520500313A2564202564202564570052616432B3
:105215003A25642025642025645700436872313A95
:10522500256F20256F20256F4100436872323A258E
:105235006F20256F20256F4100446973633A256F00
:1052450020256F20256F410054656D703A256F202C
:10525500256F20256F0025622D25622D2564204DA3
:105265006178696D756D264D696E696D756D004264
:105275006174743A20256F20256F560052616431A0
:105285003A2025642025645700526164323A20256E
:10529500642025645700436872313A20256F202524
:1052A5006F4100436872323A20256F20256F410017
:1052B500446973633A20256F20256F410054656D5D
:1052C500703A20256F20256F00E4AFC0C0C4EAB650
:1052D500C8CAFDBEDD00E4AFC0C0D4C2B7DDCAFD9B
:1052E500BEDD00E4AFC0C0C3BFCCECCAFDBEDD006F
:1052F500C0FACAB7CAFDBEDDE4AFC0C0000A0A00E5
:105305003E3E00202000257300C0FACAB7CAFDBE84
:10531500DDB4F2D3A10A0AC6F0CABCC8D5C6DA3ACA
:105325002564C4EA2562D4C22562C8D500C0FACA7C
:10533500B7CAFDBEDDB4F2D3A10A0AC6F0CABCC81D
:10534500D5C6DA3A2564C4EA2562D4C22562C8D531
:105355000A0ABDE1CAF8C8D5C6DA3A2564C4EA2501
:1053650062D4C22562C8D5000909C0FACAB7CAFD08
:10537500BEDDB4F2D3A10A0D000A0D2564C4EA25E9
:1053850062D4C22562C8D50A0D00CAB1BCE409B70A
:10539500F8C9E4C1BF3109B7F8C9E4C1BF3209D0C2
:1053A500EEB5E7B3D8B5E7D1B909B3E4B5E7B5E7E5
:1053B500C1F73109B3E4B5E7B5E7C1F73209B7C5B8
:1053C500B5E7B5E7C1F709CEC2B6C80A0D00256233
:1053D5003A3030092564570925645709256F560960
:1053E500256F4109256F4109256F4109256FA1E603
:1053F5000A0D00B5B1CCECD7EEB4F3D6B5092564EA
:10540500570925645709256F5609256F4109256FE9
:105415004109256F4109256FA1E60A0D00B5B1CCFB
:10542500ECD7EED0A1D6B5092564570925645709EF
:10543500256F5609256F4109256F4109256F4109DA
:10544500256FA1E60A0D00B3E4B5E731B5E7C1BFA5
:105455003A256F416809B3E4B5E732B5E7C1BF3A0C
:10546500256F416809B7C5B5E7B5E7C1BF3A256FEF
:1054750041680A0D09B7F8C9E4C1BF313A25645737
:1054850009B7F8C9E4C1BF323A2564570A0D000AC5
:105495000DB4F2D3A1CAB1BCE4A3BA2564C4EA250C
:1054A50062D4C22562C8D52562CAB12562B7D60ABB
:1054B5000D00CFB5CDB3B2CECAFDC9E8D6C30A0A31
:1054C500B0B4C8B7B6A8BCFCBCCCD0F80A0AC6E4D0
:1054D500CBFCBCFCCDCBB3F60A0AD7A2D2E2A3BA69
:1054E500D0E8D2AAD7A8D2B5C8CBD4B1B5F7D5FBE9
:1054F500A3A100257325660A0AB0B4BCD3BCF5BCCC
:10550500FCB5F7D5FB0A0AB0B4C9E8D6C3BCFCBBE9
:10551500D6B8B4C8B1CAA1D6B50A0AB0B4C8B7B628
:10552500A8BCFCB1A3B4E600B8F1CABDBBAFCAFDC7
:10553500BEDDB4E6B4A2C7F8A3BF0A0AB0B4C8B7C3
:10554500B6A8BCFCC8B7C8CF0A0AB0B4C6E4CBFC41
:10555500BCFCCDCBB3F600C8B7B6A8D2AAB8F1CA81
:10556500BDBBAFCAFDBEDDC7F8A3BF0A0AB0B4C84C
:10557500B7B6A8BCFCC8B7C8CF0A0AB0B4C6E4CB56
:10558500FCBCFCCDCBB3F600D5FDD4DAB8F1CABD71
:10559500BBAFCAFDBEDDC7F82E2E2E0A0AC7EBB576
:1055A500C8BAF22E2E2E00534A432D3242D0CDD604
:1055B500C7C4DCCAFDBEDDB2C9BCAFC6F700CAFDB3
:1055C500BEDDC7F8D3D0B4EDCEF3210A0AC7EBD6BA
:1055D500B4D0D0CFB5CDB3B3F5CABCBBAF2E00B5F3
:1055E500B1C7B0CAB1BCE4C8D5C6DA000A0A25629B
:1055F500CAB12562B7D62562C3EB20202020000A58
:105605000A2564C4EA2562D4C22562C8D5202020B3
:105615002000D0EEB5E7B3D8B5E7D1B920202020DA
:1056250020000A0AB5B1C7B0D6B53A256F56202075
:105635002020000A0ABDF1C8D5D7EEB4F3D6B53A95
:10564500256F56202020200A0ABDF1C8D5D7EED0F7
:10565500A1D6B53A256F562020202000B3E4B5E742
:10566500B5E7C1F720313A2020202020000A0AB5ED
:10567500B1C7B0D6B53A256F4120202020000A0ACF
:10568500BDF1C8D5D7EEB4F3D6B53A256F41202084
:1056950020200A0ABDF1C8D5D7EED0A1D6B53A2546
:1056A5006F412020202000B3E4B5E7B5E7C1F7201E
:1056B500323A202020202000B7C5B5E7B5E7C1F76D
:1056C5003A202020202000B7F8C9E4C1BF20313A94
:1056D5002020202020000A0AB5B1C7B0D6B53A254A
:1056E50064572F6D20202020000A0ABDF1C8D5D7A8
:1056F500EEB4F3D6B53A2564572F6D202020200A45
:105705000ABDF1C8D5D7EED0A1D6B53A2564572F35
:105715006D2020202000B7F8C9E4C1BF20323A200F
:105725002020202000BBB7BEB3CEC2B6C83A202089
:1057350020202020000A0AB5B1C7B0D6B53A256F9A
:10574500A1E620202020000A0ABDF1C8D5D7EEB475
:10575500F3D6B53A256FA1E6202020200A0ABDF12F
:10576500C8D5D7EED0A1D6B53A256FA1E620202021
:10577500200000000000000000007E8195B1B19579
:10578500817E7EFFEBCFCFEBFF7E0E1F3F7E3F1F5F
:105795000E00081C3E7F3E1C080018BAFFFFFFBA2A
:1057A500180010B8FCFFFCB810000000183C3C18AD
:1057B5000000FFFFE7C3C3E7FFFF003C6642426608
:1057C5003C00FFC399BDBD99C3FF70F88888FD7F74
:1057D500070F004E5FF1F15F4E00C0E0FF7F05054A
:1057E5000707C0FF7F0505657F3F995A3CE7E73C02
:1057F5005A997F3E3E1C1C08080008081C1C3E3EAA
:105805007F00002466FFFF662400005F5F00005FE5
:105815005F00060F097F7F017F7F40DABFA5FD5935
:10582500030200707070707070008094B6FFFFB650
:1058350094800004067F7F0604000010307F7F30CF
:1058450010000808082A3E1C0800081C3E2A080803
:1058550008003C3C202020202000081C3E08083E73
:105865001C0830383C3E3E3C3830060E1E3E3E1E7F
:105875000E06000000000000000000065F5F060045
:1058850000000007070007070000147F7F147F7FD3
:105895001400242E6B6B3A120000466630180C6615
:1058A5006200307A4F5D377A480004070300000034
:1058B5000000001C3E63410000000041633E1C00E7
:1058C5000000082A3E1C1C3E2A0808083E3E08081F
:1058D50000000080E06000000000080808080808D3
:1058E500000000006060000000006030180C060336
:1058F50001003E7F71594D7F3E0040427F7F404011
:105905000000627359496F660000226349497F367A
:105915000000181C16537F7F5000276745457D39C9
:1059250000003C7E4B4979300000030371790F0775
:105935000000367F49497F360000064F49693F1E02
:10594500000000006666000000000080E6660000BA
:105955000000081C3663410000002424242424246C
:105965000000004163361C080000020351590F0670
:1059750000003E7F415D5D1F1E007C7E13137E7C13
:105985000000417F7F49497F36001C3E63414163EA
:105995002200417F7F41633E1C00417F7F495D417D
:1059A5006300417F7F491D0103001C3E6341517324
:1059B50072007F7F08087F7F000000417F7F4100E4
:1059C5000000307040417F3F0100417F7F081C7718
:1059D5006300417F7F41406070007F7F0E1C0E7F1A
:1059E5007F007F7F060C187F7F001C3E6341633E6E
:1059F5001C00417F7F49090F06001E3F21717F5E14
:105A05000000417F7F09197F6600266F4D5973326B
:105A1500000003417F7F410300007F7F40407F7F7F
:105A250000001F3F60603F1F00007F7F3018307F00
:105A35007F0043673C183C674300074F78784F0762
:105A45000000476371594D677300007F7F41410036
:105A550000000103060C183060000041417F7F0003
:105A65000000080C0603060C0800808080808080FA
:105A750080800000030704000000207454543C7823
:105A85004000417F3F4848783000387C44446C28CA
:105A95000000307848493F7F4000387C54545C18FA
:105AA5000000487E7F490302000098BCA4A4F87C4E
:105AB5000400417F7F08047C780000447D7D400020
:105AC500000060E08080FD7D0000417F7F10386C24
:105AD500440000417F7F400000007C7C18381C7C1E
:105AE50078007C7C04047C780000387C44447C3855
:105AF500000084FCF8A4243C1800183C24A4F8FCFD
:105B05008400447C784C041C1800485C545474246C
:105B1500000000043E7F442400003C7C40403C7C67
:105B250040001C3C60603C1C00003C7C7038707C74
:105B35003C00446C3810386C44009CBCA0A0FC7C34
:105B450000004C64745C4C64000008083E774141D9
:105B5500000000000077770000004141773E08080B
:105B65000000020301030203010070784C464C78E3
:105B750070000E9F91B1FB4A00003A7A40407A7A54
:105B85004000387C54555D19000002237555557D3C
:105B95007B42217554547D794000217555547C789C
:105BA5004000207457577C784000183CA4A4E4407A
:105BB5000000023B7D55555D1B02397D54545D192E
:105BC5000000397D55545C18000001457C7C41017D
:105BD50000000203457D7D43020001457D7C4000B8
:105BE5000000797D1612167D790070782B2B787060
:105BF5000000447C7C5555450000207454547C7C41
:105C050054547C7E0B097F7F4900327B49497B32A6
:105C15000000327A48487A320000327A4A487830B1
:105C250000003A7B41417B7A40003A7A42407878DD
:105C350040009ABAA0A0FA7A000001193C66663CB9
:105C450019013D7D40407D3D0000183C24E7E724D7
:105C55002400687E7F49436620002B2FFCFC2F2BF8
:105C65000000FFFF09092FF6F8A040C088FE7F0954
:105C75000302207454557D79400000447D7D410028
:105C850000003078484A7A320000387840427A7A03
:105C950040007A7A0A0A7A7000007D7D19317D7D8F
:105CA500000000262F292F2F280000262F292F2618
:105CB500000030784D456020000038380808080895
:105CC500000008080808383800004F6F3018CCEE7F
:105CD500BB914F6F30186C76FBF90000007B7B00A1
:105CE5000000081C3622081C362222361C082236E3
:105CF5001C08AA005500AA005500AA55AA55AA5580
:105D0500AA55DDFFAA77DDAAFF77000000FFFF0097
:105D15000000101010FFFF000000141414FFFF0016
:105D250000001010FFFF00FFFF001010F0F010F052
:105D3500F000141414FCFC0000001414F7F700FF25
:105D4500FF000000FFFF00FFFF001414F4F404FC43
:105D5500FC0014141717101F1F0010101F1F101F11
:105D65001F001414141F1F000000101010F0F00085
:105D750000000000001F1F1010101010101F1F1032
:105D85001010101010F0F0101010000000FFFF10A0
:105D950010101010101010101010101010FFFF1020
:105DA5001010000000FFFF1414140000FFFF00FF97
:105DB500FF1000001F1F101717140000FCFC04F44F
:105DC500F41414141717101717141414F4F404F416
:105DD500F4140000FFFF00F7F7141414141414143E
:105DE50014141414F7F700F7F714141414171714F0
:105DF500141410101F1F101F1F10141414F4F41482
:105E050014141010F0F010F0F01000001F1F101FF8
:105E15001F100000001F1F141414000000FCFC14C8
:105E250014140000F0F010F0F0101010FFFF10FF38
:105E3500FF10141414FFFF1414141010101F1F006A
:105E45000000000000F0F0101010FFFFFFFFFFFF43
:105E5500FFFFF0F0F0F0F0F0F0F0FFFFFFFF0000C3
:105E6500000000000000FFFFFFFF0F0F0F0F0F0FD7
:105E75000F0F387C446C386C44007E7F01094F76E7
:105E850030007F7F010103030000027E7E027E7EDB
:105E9500020063775D4963630000387C447C3C0401
:105EA500040080FE7E20203E1E000406027E7C0645
:105EB500020099BDE7E7BD9900001C3E6B496B3EAA
:105EC5001C004C7E7301737E4C0030784A4F7D393F
:105ED5000000183C243C3C243C1898FC643C3E27BC
:105EE5003D181C3E6B49490000007E7F01017F7E05
:105EF50000002A2A2A2A2A2A000044445F5F4444D3
:105F0500000040515B4E4440000040444E5B514010
:105F15000000000000FEFF01070660E080FF7F0033
:105F2500000008086B6B080800002436123624367A
:105F3500120000060F090F060000000000181800E7
:105F450000000000001010000000103070C0FFFFBE
:105F55000101001F1F011F1E000000191D1712005F
:105F6500000000003C3C3C3C00000000000000003C
:105F75000000D0EEB5E7B3D8D1B9CFB5CAFDA3BA05
:105F8500B7F8C9E4C1BFCEC2B6C8BCC6CBE3B7E754
:105F9500BBFAC1F7B7C5B3E4B7F1CAC7B5B1C7B066
:105FA500C8D5C6DACAB1BCE4E4AFC0C0C0FACAB746
:105FB500BEDDB4F2D3A1CEB4D7BCB1B8BAC3B0B4C8
:105FC500C8B7B6A8BCFCBCCCD0F8C9E8D6C3CDCB05
:105FD500B3F6D5FDD4DAC7EBD1A1D4F1C4EAD4C266
:105FE500B7DDCEDED6B8B6CEC3BBD3D0C3BFCCECFF
:105FF500C6F0CABCBDE1CAF8A1E6D7EEB4F3D6B582
:10600500D0A1B7D6CDB3B2CEC6E4CBFCD7A2D2E2EF
:10601500D0E8D2AAD7A8D2B5C8CBD4B1B5F7D5FBAD
:10602500A3A1BCD3BCF5BBD6B8B4C8B1CAA1B1A3B2
:10603500B4E6B8F1CABDBBAFB4A2C7F8A3BFC8CF19
:10604500B5C8BAF2D0CDD6C7C4DCB2C9BCAFC6F7A5
:10605500BDF8D0D0B4FDCDEAB3C9C8CEB4EDCEF30A
:10606500D6B4B3F5C3EBBDF1BBB7BEB30212125242
:1060750072D7D25A52379212121202000000FAABAE
:10608500ABAAAAFAAAAAAAABFA04000000F090905B
:106095009090FF90909090F810000000000F04047D
:1060A50004047F848484848F80F000001022640CB3
:1060B5004040FC2020FF1010F81000000404FE01F1
:1060C50000003F40405F4448474070000000FE022A
:1060D50082828282FE828282C382000040300F402B
:1060E500404040407F4042444C6040000002222234
:1060F50032AAA6622212890101000000004022177F
:106105000342827E020202136600000010925430A0
:10611500FF509432D8171010F018100002824E3339
:1061250022528E402314081661C040000000000072
:1061350000000000000000000000000000003636EE
:1061450000000000000000000000000088E898CF73
:10615500888802027A4A4A4A7A030200081808FF28
:10616500040400FF49497F4949FF00000000FCA6DF
:10617500A5A4FC0020202020FF2020004444271453
:106185004C847F00010640807F000000202020BE57
:10619500AAAAAAAAAAAAAABF22202000008080AF84
:1061A500AAAAAAFFAAAAAAAF808000001022640C9E
:1061B5008000FE9292929292FF0200000404FE017A
:1061C500407E42427E427E42427E40000000FC24E8
:1061D5002424FC252624FC242426040040209F801A
:1061E500844C55252555550C84808000404042CC73
:1061F5000040404040FF4040406040000000007FBC
:106205002010080000FF000000000000080403FA49
:10621500AEAAAAACABAAAEFA020200000808884BE7
:106225003E0A0A0A0A0AFE0B080808000000FE02D8
:106235000A126282621A02FF0200000080403F20BB
:10624500100806010618003F4080E0001010D0FF3E
:10625500901000FC040404FE04000000040300FF89
:106265008041201F0000003F404070001022640C58
:10627500C0044464554E445464C604000004FC0341
:1062850080403F0000FF00007F80E0001010F19685
:1062950090D09010D8171010F018100040300F2033
:1062A500403F8040201B041B60C040000808088850
:1062B500C8A8998E88A8C888080C08000080804066
:1062C500300F0000003F40414040700002028282D2
:1062D500422212FA0622224242838200010100FE76
:1062E50042424243424242FE0000010000000000DB
:1062F5007F49494949497F000080000001814121CA
:106305001D21417F89898D89818181000040424419
:106315004C40407F40404844E64000000040444433
:106325004444444444444444FF0000000808E82928
:106335002A2EE80808CC0A0BE80C08000000FF0923
:1063450049897F00000F40807F000000000000FEAB
:1063550082828282828282FF020000000000007F2A
:10636500202020202020207F000000000008FFA81A
:10637500A8A8FF0800FE222222FF02008444370459
:106385000414A744241F0242827F000000FC848479
:1063950084FE141090101010FF101000003F101014
:1063A500103F0000002340807F00000000F801023C
:1063B50006E0222222F2220202FF020000FF000074
:1063C500003F1111113F0040807F00001062048CD6
:1063D5000828C90EC83808FC00FF00000404FE01A7
:1063E50020100C030C30004F807F0000003E00C0E1
:1063F5007F40504847444CD4040604008080805FA9
:106405004020100F7880809F8080E0000000FE42D1
:10641500424242FE42424242E342000040300F8087
:1064250040201807004080807F0000000000F888A9
:10643500888888FF88888888FC080000808041401B
:10644500221408171020204041C04000101010FFF2
:106455009050FE929292F29292DF82000242817FE8
:10646500403807FC4444474444FC0000101010FF2A
:10647500905008080808F808080C08000242817FB7
:106485000000000040807F000000000000FE424246
:1064950042614100FE02020202FF0200001F1010CD
:1064A50008080800FF000810080700008088888891
:1064B500888888FF888888888CC880000020100814
:1064C500040201FF0102040810301000000204EC70
:1064D5004020F84F4849FE48484C080002027F001A
:1064E5000000FF2222223F22223220000000908855
:1064F500444B3212324A478280000000010100FFFE
:106505004949497F494949FF000101001010F01F21
:1065150010F080828282E2928AC6800040221508AD
:106525001463000040807F0000000000101010FF81
:106535009020988888E98A8888A898000242817FF7
:10654500000080844B30102C43C000000484E49C80
:1065550084C624F02827F42C24E0000001007F20C5
:1065650020BF403F09097F0989FF0000100C444402
:10657500444445C644446444140E04008040201E2F
:106585002040407F44444644404040001028E724D2
:1065950024C2B28E105454FF547C100001017F2197
:1065A50051241827488989FF898988002030AC63E0
:1065B5003000FE8890A0FFA090980000226722126C
:1065C50012007F4844427F42446C40002030AC6357
:1065D50030002464A43FE424A46000002263221256
:1065E50012148546241C172444C60400404042CC9E
:1065F5000040A09F8181819FA02020000000007F96
:10660500A09040432C10282641C04000001017D50B
:106615005557557D555755D5171000004040407FBB
:10662500555555555555557F40604000404244CC21
:106635000000FF4949494949FF4000000040201F2B
:1066450020409F8885818285889880000000FC40D5
:10665500404040FF40404040FC00000000FE4040FC
:106665004040407F4040404040FE0000000202C2E2
:10667500020202FE828282C2830200004040407F05
:106685004040407F404040404060400008080808C6
:10669500C8380F0808E80808880C0800080402FF35
:1066A50000404141417F4141416140002022EC00D1
:1066B50040445454547F54545644400000007F20B5
:1066C5001000FF15151555957F000000404244CC7C
:1066D50000605E48C87FC8484C6840000040201FE5
:1066E5002060908C83809FA0A0A0B800101010FFA0
:1066F500905082462A922A46828080000242817FFB
:106705000009080909FF09090C090000004020D803
:10671500474444FC4444446446040000040404071C
:10672500040404FF0404040404060400000000003B
:10673500FE222222222222FF020000000080403099
:106745000F0202020242827F00000000804020F812
:106755008740B08E8080879820602000000000FF71
:106765000040300F4080403F0000000000404242A2
:106775004242FE42C2424342604000000080402047
:10678500180601003F40404040407000101010FFC7
:106795009050003F48484844464470000242817F7B
:1067A500000000FF4949494949FF00000000FE2259
:1067B500222121807E0202027F4240001010FF0943
:1067C500098989824E5222524F8280001021620629
:1067D5000040A09E8282829FA22020000404FE0128
:1067E5008080414628102846C140400004040484A6
:1067F500E43C2724242424F4240604000402010094
:10680500FF0909090949897F00000000001008E710
:10681500242464A4242424F4260400000202322F34
:10682500222226AAA2A2623F22030200404242423D
:10683500424242FE42424242436240008080402042
:10684500100C0300030C102040C04000404848488D
:10685500FF484800C4444444FE04000040301F2063
:106865007F4242404F505050505C40001010F01F86
:1068750010F04060584740405060C0004022150865
:10688500166100FE4242424242FE0000003028A44A
:106895006310084848487F48484C08000022632296
:1068A500121200FE4242424242FE00000404E42469
:1068B500242424FF24242424F426040040402722F1
:1068C500120A06FF060A121227602000060909E6C9
:1068D5001804020202020202041E00000000000762
:1068E5001820404040404040201800004040C05F14
:1068F5005555D5555555555F4040400020203F150D
:106905001515FF814729112D43C040002020202067
:106915002020A07FA0202020203020000040402003
:10692500100C03000106081020602000804020F8AC
:106935000704E4A4A4BFA4A4E4060400000000FF27
:1069450040407F4A4A4A4A4A7F4040000000008052
:10695500C00000FF000040800000000004020100AC
:106965000040807F0000000003060000008040A07A
:1069750098868080838C9020C080800001008040B4
:10698500300F004080403F00000100002030AC6324
:106995003088C8A8998E88A8CC8800002267221262
:1069A5009240300F00003F404041700020202028D9
:1069B500A86C3B28A86AAC2820302000048482817A
:1069C5004A4A49252412100902060200000004045F
:1069D500FF2424242424FF04040000000808884818
:1069E5006F09090909092F48C80C0800100C04048F
:1069F500E40405060484C404140E04000000000029
:106A05003F42424141404040780000001022640C62
:106A15008008080809FE0808880C08000404FE011F
:106A250040414141417F414141614000101012D236
:106A3500565A5253525A56D2121810004030007707
:106A450085858D95B58585E700106000908C85A5B9
:106A5500AD9585FF8595ADA585948C000000FC045A
:106A6500047E05047C0444847E0400000002F29246
:106A750092FE929292FE9292F302000002028282AC
:106A85008A56532222524E82020202004040484852
:106A950048C8784F4848484C48604000000000000E
:106AA5000223224262920A07020000000010608061
:106AB50000FF000000FF0000C030000040404047DC
:106AC500407F4040407F444340604000000000005C
:106AD5000000807F80000000000000000080402052
:106AE500100C0300030C102040C040000000809EE5
:106AF500929292929292929FC280000000809F4053
:106B05004020100F002020405F8000002021E6007B
:106B150000FE829292FE929282FF020000003F9058
:106B2500483F001E1212125E807F0000023AAA6AD8
:106B3500FFAA2A3A121FA444BC0404004041424261
:106B45007B42437E4A4B4A4A42614100000000FEB7
:106B5500FE000000000000000000000000000037FB
:106B6500370000000000000000000000101010FFBA
:106B75001010F81000F8080808FC08004020180755
:106B850020403F00007F2020207F00000002048C71
:106B950040F80848484808FF0A0C880002023F8070
:106BA500403F003F915F201F6886E100807000FF35
:106BB500102808E81F08E808088C0800000000FFF6
:106BC5002018878041320F3241C1400020100C034C
:106BD500FAAAAAAAAAAAAAFA030200000020908883
:106BE50046472A32122A464280808000A0908FF8BC
:106BF500888C881010FF1010F8100000007E203FD0
:106C050020FE40221A071A2243C242000000201823
:106C15008680405F202012048818000002020101CE
:106C2500FF55555555555555FF010000008060F835
:106C350007007E2222E222223F820000010000FF9F
:106C45004121110905FF050931612100040404C42E
:106C5500340C27242424A46424060400040201FF20
:106C650002020242827F0202020302001010D0FFDC
:106C750050B01817A444A4140C000000040300FF2E
:106C85000804FE4544444445FE0602001010909059
:106C950090909010FF101214101810000020602022
:106CA5001F1010100106182040807000804020F849
:106CB50007000000FF40201018000000000000FF42
:106CC500000402013F404040404070004020F8274A
:106CD50020E20C4048FF4868584C40000000FF0087
:106CE500003F2412FF494949FF0000000000FE0251
:106CF5000A122242824222121B02000000007F403B
:106D050048444241404142464C6040000000003842
:106D1500340282C27C380000000000000000000040
:106D2500000037370000000000000000404244CC5E
:106D350000000000C03FC000000000000000003F50
:106D45009048300E0100010E30C040000008242795
:106D55002C2424F824272C242604000001050505ED
:106D65000D350545857F0505050501002010FC034A
:106D7500F81092F29292929F929010000000FF00FC
:106D85001F854424140F142444C64400202222FEE7
:106D95002222FE222200FC0000FF0000404C4A494E
:106DA50048484B7E4848484A4C6B4000202827E419
:106DB5003CA4262420FC848484FE0400040201FCF7
:106DC50054545754545554FE0401000010D85453DC
:106DD50050DC30007F90888486E0000000FF12526E
:106DE500927F00007E9088848680E0000004041471
:106DF500240404D4240222121B8200000121211143
:106E0500090503FF0305090911311100201008FCCC
:106E1500575454FD56545456040000000444442766
:106E2500150D05FF050D15256524040080809F912E
:106E350091919FE09F91B1D19F8080000808FC8CC3
:106E45008A8AF900F98A8A8CFC0808004042CC003D
:106E55000808FF080808FF080888000040201F20D0
:106E650041514F4141417F4141414100001088C49A
:106E750023404242424242C243624000020100FFB7
:106E8500000000000040807F00000000001088C462
:106E950033404444447F44C446644000020100FF3B
:106EA5000002020A3282827F02020200100C0424D0
:106EB5002424252624342404940E040000818141D1
:106EC500310F01017F81818181F100000000F88887
:106ED500888888087F880A0C08C8000040201F00A1
:106EE50008100F4020131C244380F000804020F838
:106EF5008780848484FC848282C08000000000FF37
:106F050000202020203F202030200000804070CF2E
:106F1500480840487F48487F484840000002027FB3
:106F2500221200FF49494949FF0000004042C40CB4
:106F350000809E9292929292DF82000000007F2054
:106F4500148444241C071C2444C64400101010FF5C
:106F550090500010FF1010F8100000000242817FD1
:106F65000080601D030C007F8080F000101091D61A
:106F75003098000808F8080808FC0800020100FF1E
:106F85000384402018074080403F0000202424A4AB
:106F9500FEA322807000FF0010206000100806018B
:106FA500FF008180402017080403000080804020F6
:106FB50010082443C408102040C04000000000020F
:106FC5000202028242221A0600000000424242FEEC
:106FD5004206048444E41C84040604001030101F97
:106FE500080A010000FF0000010306002020FF2021
:106FF5000024A4ACB5A6B4ACA624200010301F080C
:1070050088804F3A0A0A7A8A8F80E00005509505F4
:1070150050A60550B60550C50550D50550E4055098
:10702500F6D2007A402EFFF93F0000803F2EFFF98F
:107035003F7502FA3E7502FA3E7502FA3E055108A1
:1070450005510B03B5B1C7B0C8D5C6DA3A0A0A204F
:1070550025622D25622D256400000000000000003A
:1070650000000000000000000000000288080288FF
:107075000702880902B5B1C7B0CAB1BCE43A0A0A29
:107085002025623A25623A256200000000000000D2
:10709500000000000000000000000000028804025B
:1070A500880202880000E4AFC0C0C0FACAB7CAFDB2
:1070B500BEDD000000000000000000000000000030
:1070C50000000000000000000000000000000000BB
:1070D50000000000000000B4F2D3A1C0FACAB7CA8C
:1070E500FDBEDD0000000000000000000000000003
:1070F500000000000000000000000000000000008B
:10710500000000000000000552CE0552DB0552E8E4
:0B7115001B44060C12181E242A300038
:06001600C1174180300A11
:10000600908000EFF0908000E0FFEFC4540FFF22D5
:10002600908001EFF0908001E0FFEF540FFF2290E7
:100036008002EEF0A3EFF0908002E0FEA3E0FF74F2
:10004600082FF582EE3490F583E0FFEFC3948050DD
:10005600E622908004E4F0908004E0FFEFC394036E
:10006600400302011C908005E4F0908005E0FFEF5C
:10007600C3940840030200F8908004E0FF7E00125B
:100086000035908005E0FFEF44B8FF908004E0FE65
:10009600E42EF582E43490F583EFF0908004E0FFDF
:1000A6007E00120035908004E0FFE42FF582E434F0
:1000B60090F5837440F0908006E4F0908006E0FFAF
:1000C600EFC394405023908004E0FF7E0012003579
:1000D600908004E0FF74042FF582E43490F583E405
:1000E600F0908006E004F080D2908005E004F002F3
:1000F6000070908004E0FF7E00120035908004E0DE
:10010600FFE42FF582E43490F58374C0F090800408
:10011600E004F002005D908090E4F090808FE4F0BF
:1001260022908091EFF0908091E0FFEFB40A229048
:10013600808FE0FFEFC3940740047F008008908023
:100146008FE0FFEF04FF90808FEFF0908090E4F057
:1001560022908091E0FFEFD394A0400302050FD2D6
:100166000F908090E0FFEFC39480400890809374D6
:1001760001F08018908090E0FFEFC3944040089013
:1001860080937402F08005908093E4F0908091E073
:10019600FF7E08EF8EF0A4FFAEF074772FF9745748
:1001A6003EFA7B05908094EBF0A3EAF0A3E9F09089
:1001B6008093E0FF7E00120035300B030202A79009
:1001C600808FE0FFEF5407FFEF44B8FF908093E085
:1001D600FEE42EF582E43490F583EFF0908093E010
:1001E600FF7E00120035908090E0FFEF543FFFEF56
:1001F6004440FF908093E0FEE42EF582E43490F5CF
:1002060083EFF0908092E4F0908092E0FFEFC39449
:1002160008503C908093E0FF7E0012003590809459
:10022600E0FBA3E0FAA3E0F9908092E0FF8F8275ED
:1002360083001279A0FF908093E0FE74042EF5826D
:10024600E43490F583EFF0908092E004F080B9906A
:100256008093E0FF7E00120035908093E0FFE42F4C
:10026600F582E43490F58374C0F0908090E0240821
:10027600F0908090E0FFEFC394C0500302096B90AA
:100286008090E4F090808FE0FFEFC3940740047FF6
:1002960000800890808FE0FFEF04FF90808FEFF0E2
:1002A6002290808FE0FFEF04FFEF5407FFEF44B882
:1002B600FF908093E0FEE42EF582E43490F583EF20
:1002C600F0908093E0FF7E00120035908090E0FF72
:1002D600EF543FFFEF4440FF908093E0FEE42EF59D
:1002E60082E43490F583EFF0908092E4F09080926F
:1002F600E0FFEFC39408400302042A908093E0FFD6
:100306007E00120035908092E0FF74972FF582E40C
:100316003480F583E4F0908094E0FBA3E475F0016B
:10032600127A98A9F0FA127985FF9080A1EFF090E1
:1003360080A0E4F09080A0E0FFEFC39404505590B5
:100346008092E0FF74972FF582E43480F583C083B2
:10035600C082E0FFEF25E025E0FFD082D083EFF0FA
:100366009080A1E0FFEFC394804013908092E0FF5D
:1003760074972FF582E43480F583E02403F09080AF
:10038600A1E0FFEF25E0FF9080A1EFF09080A0E0D4
:1003960004F080A0908092E0FF74972FF582E434F9
:1003A60080F583E0FF908093E0FE74042EF582E4EE
:1003B6003490F583EFF09080A0E4F09080A0E0FF09
:1003C600EFC394045055908092E0FF74972FF58206
:1003D600E43480F583C083C082E0FFEF25E025E0AA
:1003E600FFD082D083EFF09080A1E0FFEFC394802E
:1003F6004013908092E0FF74972FF582E43480F5E5
:1004060083E02403F09080A1E0FFEF25E0FF9080D9
:10041600A1EFF09080A0E004F080A0908092E0042C
:10042600F00202F3908093E0FF7E00120035908088
:100436008FE0FFEF5407FFEF44B8FF908093E0FE94
:10044600E42EF582E43490F583EFF0908093E0FF9C
:100456007E00120035908090E0FFEF543FFFEF449E
:1004660040FF908093E0FEE42EF582E43490F5831D
:10047600EFF0908092E4F0908092E0FFEFC3940852
:100486005034908093E0FF7E00120035908092E019
:10049600FF74972FF582E43480F583E0FF90809314
:1004A600E0FE74042EF582E43490F583EFF090803C
:1004B60092E004F080C1908093E0FF7E0012003548
:1004C600908093E0FFE42FF582E43490F58374C0C6
:1004D600F0908090E02408F0908090E0FFEFC394C5
:1004E600C0500302096B908090E4F090808FE0FF8B
:1004F600EFC3940740047F00800990808FE0FFEFF0
:100506002402FF90808FEFF022300F0D908091E053
:10051600FF908007EFF0C20F22D20F908091E0FF8C
:10052600908008EFF0908092E4F0908092E0FFEFE8
:10053600C394FA503C908092E0FFEF25E02477F5D3
:1005460082E4345FF583E493FE740193FF908007A1
:10055600E0FCA3E0FDEFB50510EEB5040C9080922B
:10056600E0FF908007EFF08008908092E004F08032
:10057600B990809F7410F0908090E0FFEFC3948054
:10058600403D9080937401F0908090E0FFEFD3940B
:10059600B05003020611908090E4F090808FE0FF47
:1005A600EFC3940740047F00800990808FE0FFEF3F
:1005B6002402FF90808FEFF0908093E4F0804C90BF
:1005C6008090E0FFEFC3944040229080937402F045
:1005D600908090E0FFEFD394704030908090E0FFE1
:1005E600C374809FFF90809FEFF0801F908093E4FC
:1005F600F0908090E0FFEFD39430400F908090E031
:10060600FFC374409FFF90809FEFF0908093E0FFC0
:100616007E0012003590808FE0FFEF5407FFEF4415
:10062600B8FF908093E0FEE42EF582E43490F583E3
:10063600EFF0908093E0FF7E00120035908090E00E
:10064600FFEF543FFFEF4440FF908093E0FEE42E1F
:10065600F582E43490F583EFF0908092E4F0908098
:100666009FE0FF908092E0FEEEC39F5049908093FA
:10067600E0FF7E00120035908092E0FF908007E058
:10068600FE75F020EEA42471F582E5F03460F58362
:10069600E5822FF582E43583F583E493FF9080931A
:1006A600E0FE74042EF582E43490F583EFF090803A
:1006B60092E004F080A8908093E0FF7E001200355F
:1006C60090808FE0FFEF04FFEF5407FFEF44B8FF81
:1006D600908093E0FEE42EF582E43490F583EFF00B
:1006E600908093E0FF7E00120035908090E0FFEF4F
:1006F600543FFFEF4440FF908093E0FEE42EF582E6
:10070600E43490F583EFF09080927410F090809F1F
:10071600E0FF7E00EF2410FFEE3400FE908092E0B2
:10072600FD7C00C3ED9FEE6480F8EC648098504930
:10073600908093E0FF7E00120035908092E0FF905B
:100746008007E0FE75F020EEA42471F582E5F03412
:1007560060F583E5822FF582E43583F583E493FF24
:10076600908093E0FE74042EF582E43490F583EFD6
:10077600F0908092E004F0809490809FE0FFEF6418
:1007860010700302091C908090E0FF7E00EF241099
:10079600FFEE3400FEC3EF9480EE64809480400840
:1007A6009080937401F08027908090E0FF7E00EFA8
:1007B6002410FFEE3400FEC3EF9440EE6480948074
:1007C60040089080937402F08005908093E4F09046
:1007D6008093E0FF7E0012003590808FE0FFEF549B
:1007E60007FFEF44B8FF908093E0FEE42EF582E425
:1007F6003490F583EFF0908093E0FF7E0012003591
:10080600908093E0FFE42FF582E43490F583744002
:10081600F090809FE0FF908092EFF0908092E0FF52
:10082600EFC394105049908093E0FF7E001200358C
:10083600908092E0FF908007E0FE75F020EEA42401
:1008460071F582E5F03460F583E5822FF582E435B3
:1008560083F583E493FF908093E0FE74042EF58283
:10086600E43490F583EFF0908092E004F080AC9051
:100876008093E0FF7E0012003590808FE0FFEF044A
:10088600FFEF5407FFEF44B8FF908093E0FEE42E9D
:10089600F582E43490F583EFF0908093E0FF7E00DC
:1008A600120035908093E0FFE42FF582E43490F552
:1008B600837440F090809FE0FFEF2410FF908092B9
:1008C600EFF0908092E0FFEFC39420504990809320
:1008D600E0FF7E00120035908092E0FF908007E0F6
:1008E600FE75F020EEA42471F582E5F03460F58300
:1008F600E5822FF582E43583F583E493FF908093B8
:10090600E0FE74042EF582E43490F583EFF09080D7
:1009160092E004F080AC908093E0FF7E00120035F8
:10092600908093E0FFE42FF582E43490F58374C061
:10093600F0908090E02410F0908090E0FFEFC39458
:10094600C04022908090E4F090808FE0FFEFC39447
:100956000740047F00800990808FE0FFEF2402FFAC
:1009660090808FEFF0229080A2EFF09080A3EDF0C0
:100976009080A2E0FF90808FEFF09080A3E0FF9040
:100986008090EFF0229080A4E4F09080A4E0FFEF46
:10099600C39403503E9080A4E0FF7E001200359081
:1009A60080A4E0FFE42FF582E43490F583743FF0F1
:1009B6009080A4E0FF7E001200359080A4E0FFE462
:1009C6002FF582E43490F58374C0F09080A4E0049F
:1009D600F080B7120058D2C4221200589080A5E4C5
:1009E600F09080A5E0FFEFC39403503E9080A5E011
:1009F600FF7E001200359080A5E0FFE42FF582E42B
:100A06003490F583743EF09080A5E0FF7E001200DE
:100A1600359080A5E0FFE42FF582E43490F58374E9
:100A2600C0F09080A5E004F080B7C2C4229080A6F2
:100A3600EBF0A3EAF0A3E9F07B027A8079A9908033
:100A4600DEEBF0A3EAF0A3E9F09080D5E4F0908025
:100A5600A6E0FBA3E475F001127A98A9F0FA1279E0
:100A660085FF9080D1EFF0FFEF642560159080D16F
:100A7600E0FFEF70032280D69080D1E0FF120F4690
:100A860080CC9080A6E0FBA3E475F001127A98A9C9
:100A9600F0FA127985FF9080D1EFF0FFEF127C65B6
:100AA6000B42620ABC630C3C640B6C660C3C6F0A1E
:100AB600E27300000AD79080DEE0FBA3E475F00243
:100AC600127A98A9F0FA127AAEFFAEF09080D1EFC2
:100AD600F09080D1E0FF120F46020A549080DEE0CB
:100AE600FBA3E475F003127A98A9F0FA127BAE9094
:100AF60080D2EBF0A3EAF0A3E9F09080D2E0FBA36A
:100B0600E475F001127A98A9F0FA127985FF9080BF
:100B1600D1EFF0FFEF7003020A54908030E0FF90AF
:100B260080D5E0FEEEB507077F20120F4680CB90FA
:100B360080D1E0FF120F4680C1020A549080D6E4AD
:100B4600F0A37464F09080DEE0FBA3E475F001127C
:100B56007A98A9F0FA127985FF7E009080DCEEF093
:100B6600A3EFF0020C649080DEE0FBA3E475F004D2
:100B7600127A98A9F0FA127B27127C027F467E1C15
:100B86007D407C001276AF12774A9080DAEEF0A3B1
:100B9600EFF09080D8E4F0A3740AF09080DAE0FEDB
:100BA600A3E0FF7C277D101279F7EF2430FF120FA8
:100BB600467F2E120F469080DAE0FEA3E0FF7C27E8
:100BC6007D101279F79080DAECF0A3EDF09080D6E4
:100BD6007403F0A374E8F09080D6E0FCA3E0FD90E7
:100BE60080DAE0FEA3E0FF1279F7EF2430FF120F60
:100BF600469080DAE0FEA3E0FF9080D6E0FCA3E01A
:100C0600FD1279F79080DAECF0A3EDF09080D6E053
:100C1600FEA3E0FF9080D8E0FCA3E0FD1279F790F8
:100C260080D6EEF0A3EFF09080D6E0FEA3E0FFEFD3
:100C36004E70A4020A549080D67427F0A37410F064
:100C46009080DEE0FBA3E475F002127A98A9F0FA30
:100C5600127AAEFFAEF09080DCEEF0A3EFF090805B
:100C6600D8E4F0A3740AF09080DCE0FEA3E0FFC3B2
:100C7600EE64809480501C7F2D120F469080DCE03D
:100C8600FEA3E0FFC3E49FFFE49EFE9080DCEEF04F
:100C9600A3EFF09080D6E0FEA3E0FFD3EF9401EE41
:100CA600940040309080DCE0FEA3E0FF9080D6E028
:100CB600FCA3E0FDD3ED9FEC9E40199080D6E0FEAC
:100CC600A3E0FF7C007D0A1279F79080D6EEF0A3B0
:100CD600EFF080BF9080D1E0FFEFB46F289080D610
:100CE600E0FEA3E0FFEF64014E701A908030E0FF53
:100CF6009080D5E0FEEEB507077F20120F468005EF
:100D06007F30120F469080D1E0FFEFB46F289080BD
:100D1600D6E0FEA3E0FFEF64014E701A908030E04B
:100D2600FF9080D5E0FEEEB507077F20120F4680C4
:100D3600057F2E120F46908030E0FF9080D5E0FEB2
:100D4600EEB507077F20120F46801A9080D6E0FC8A
:100D5600A3E0FD9080DCE0FEA3E0FF1279F7EF242C
:100D660030FF120F469080DCE0FEA3E0FF9080D6B5
:100D7600E0FCA3E0FD127A4C9080DCECF0A3EDF0F1
:100D86009080D6E0FEA3E0FF9080D8E0FCA3E0FDD3
:100D96001279F79080D6EEF0A3EFF09080D6E0FEC1
:100DA600A3E0FFEF4E6003020D0B9080D5E004F048
:100DB600020A54229080E1EEF0A3EFF09080E1E089
:100DC600FEA3E0FFD3EF9400EE9400403F9080E353
:100DD600E4F0A3E4F09080E3E0FEA3E0FFC3EF9429
:100DE6000AEE940050109080E4E004F070069080C3
:100DF600E3E004F080DF43871075FF009080E2E0B7
:100E060024FFF09080E1E034FFF080B022438710A9
:100E160075FF00E590540FFFEFB40F047F00222208
:100E26007F012243871075FF00E590540FFF9080E5
:100E3600E5EFF09080E5E0FFEFB40F037F0F227F30
:100E46000A7E00120DBAE590540FFF9080E5E0FE91
:100E5600EFB5060E908031E4F0A3E4F09080E5E073
:100E6600FF227F0F22120E29EF640F60119080314E
:100E7600E0FEA3E0FFC3EF9458EE940240E7120EA3
:100E8600299080E6EFF0FFEFB40F11908031E0FE7D
:100E9600A3E0FFC3EF9458EE940240E29080E6E0B0
:100EA600FF229080E7EFF02017FDD2179080E7E051
:100EB600FF8FC543C508E5C530E4FBAFC67E00EF2E
:100EC6007F00FEADC57C00EF2DFFEE3CFEEF780601
:100ED600CEC313CE13D8F9FF9080E8EEF0A3EFF05F
:100EE60053C5EFC2179080E8E0FEA3E0FF22908092
:100EF600EAEFF09080EAE0FF120EA89080EDEEF0A7
:100F0600A3EFF09080EDE0FCA3E0FDE4127712126F
:100F16007C029080EAE0FF75F004EFA4240BF582D2
:100F2600E5F03400F583127B491276AF12774A90CA
:100F360080EBEEF0A3EFF09080EBE0FEA3E0FF2263
:100F46009080EFEFF043871075FF00301409908012
:100F5600EFE0FF12012722201003020FD030C35CFE
:100F66009080F0E4F09080F0E0FFEFC394C8501258
:100F760030C3497F0A7E00120DBA9080F0E004F07B
:100F860080E3120058D2147B057A51790E120A3387
:100F9600120E6B9080F0EFF0FFEF640E6009908008
:100FA600F0E0FFEFB40F05C210C214221200587B06
:100FB600057A517942120A33C21480A19080EFE07B
:0B0FC600FF90B000EFF0C2C0D2C022CC
:03000300020FD118
:100FD100C0E0C0F0C083C082C0D075D01090880C32
:100FE100E0FF90880CEFF0B294B295908032E0046B
:100FF100F07006908031E004F0908800E0FFEF602F
:1010010003021B319080F1E4F09080F1E0FFEFC327
:10101100940740030211559080F1E0FF120EF49005
:1010210080F1E0FDED25E0247EF582E43480F58356
:10103100EEF0A3EFF09080F1E0FFEF25E025E02452
:101041000FF582E43480F583C083C082127B49129C
:101051007C029080F1E0FFEF25E0247EF582E4340C
:1010610080F583E0FEA3E0FFE4FCFD127ADBD08291
:10107100D083127B659080F1E0FFEF25E02433F50A
:1010810082E43480F583E475F001127A829080F174
:10109100E0FFEF25E0247EF582E43480F583E0FE75
:1010A100A3E0FF9080F1E0FDED25E0246EF582E400
:1010B1003480F583E0FCA3E0FDC3ED9FEC9E502C52
:1010C1009080F1E0FFEF25E0247EF582E43480F5A5
:1010D10083E0FEA3E0FF9080F1E0FDED25E0246ECA
:1010E100F582E43480F583EEF0A3EFF09080F1E037
:1010F100FFEF25E0247EF582E43480F583E0FEA352
:10110100E0FF9080F1E0FDED25E0245EF582E4341E
:1011110080F583E0FCA3E0FDD3ED9FEC9E402C9095
:1011210080F1E0FFEF25E0247EF582E43480F58351
:10113100E0FEA3E0FF9080F1E0FDED25E0245EF507
:1011410082E43480F583EEF0A3EFF09080F1E004C7
:10115100F002100A90806EE0FEA3E0FF900001E033
:10116100FD75F07AEDA42488F582E5F03401F5836C
:10117100ED2583F583EEF0A3EFF090805EE0FEA312
:10118100E0FF900001E0FD75F07AEDA4248AF5827C
:10119100E5F03401F583ED2583F583EEF0A3EFF05F
:1011A100908074E0FEA3E0FF900001E0FD75F07A0D
:1011B100EDA4248CF582E5F03401F583ED2583F56A
:1011C10083EEF0A3EFF0908064E0FEA3E0FF9000D7
:1011D10001E0FD75F07AEDA4248EF582E5F034018D
:1011E100F583ED2583F583EEF0A3EFF0908070E0B9
:1011F100FEA3E0FF900001E0FD75F07AEDA42490DC
:10120100F582E5F03401F583ED2583F583EEF0A356
:10121100EFF0908060E0FEA3E0FF900001E0FD753B
:10122100F07AEDA42492F582E5F03401F583ED2501
:1012310083F583EEF0A3EFF090807AE0FEA3E0FF68
:10124100900001E0FD75F07AEDA42494F582E5F0BB
:101251003401F583ED2583F583EEF0A3EFF0908063
:101261006AE0FEA3E0FF900001E0FD75F07AEDA4D5
:101271002496F582E5F03401F583ED2583F583EEBF
:10128100F0A3EFF0908078E0FEA3E0FF900001E092
:10129100FD75F07AEDA42498F582E5F03401F5832B
:1012A100ED2583F583EEF0A3EFF0908068E0FEA3D7
:1012B100E0FF900001E0FD75F07AEDA4249AF5823B
:1012C100E5F03401F583ED2583F583EEF0A3EFF02E
:1012D100908076E0FEA3E0FF900001E0FD75F07ADA
:1012E100EDA4249CF582E5F03401F583ED2583F529
:1012F10083EEF0A3EFF0908066E0FEA3E0FF9000A4
:1013010001E0FD75F07AEDA4249EF582E5F034014B
:10131100F583ED2583F583EEF0A3EFF0908072E085
:10132100FEA3E0FF900001E0FD75F07AEDA42454E6
:10133100F582E5F03401F583ED2583F583EEF0A325
:10134100EFF0908062E0FEA3E0FF900001E0FD7508
:10135100F07AEDA42456F582E5F03401F583ED250C
:1013610083F583EEF0A3EFF0908802E0FFEF6003D6
:10137100021B3190800F127B49127C02908033E076
:10138100FEA3E0FFE4FCFD127DCD127C3390804D85
:10139100EEF0A3EFF0908013127B49127C02908053
:1013A10035E0FEA3E0FFE4FCFD127DCD127C33901D
:1013B100804FEEF0A3EFF0908017127B49127C0270
:1013C100908037E0FEA3E0FFE4FCFD127DCD127CAE
:1013D10033908051EEF0A3EFF090801B127B491205
:1013E1007C02908039E0FEA3E0FFE4FCFD127DCD9C
:1013F100127C33908053EEF0A3EFF090801F127BAC
:1014010049127C0290803BE0FEA3E0FFE4FCFD1268
:101411007DCD127C33908055EEF0A3EFF0908023C8
:10142100127B49127C0290803DE0FEA3E0FFE4FCC8
:10143100FD127DCD127C33908057EEF0A3EFF0903A
:101441008027127B49127C0290803FE0FEA3E0FFDF
:10145100E4FCFD127DCD127C33908059EEF0A3EFB8
:10146100F090804DE0FEA3E0FF900001E0FD75F0FB
:101471007AEDA42434F582E5F03400F583ED25837B
:10148100F583C083C08290800EE0FDD082D0837549
:10149100F002ED127BA2EEF0A3EFF0908053E0FE9C
:1014A100A3E0FF900001E0FD75F07AEDA42464F55E
:1014B10082E5F03400F583ED2583F583C083C08296
:1014C10090800EE0FDD082D08375F002ED127BA2F8
:1014D100EEF0A3EFF0908059E0FEA3E0FF90000151
:1014E100E0FD75F07AEDA424C4F582E5F03400F551
:1014F10083ED2583F583C083C08290800EE0FDD00B
:1015010082D08375F002ED127BA2EEF0A3EFF09092
:10151100804FE0FEA3E0FF900001E0FD75F07AED61
:10152100A42494F582E5F03400F583ED2583F58359
:10153100C083C08290800EE0FDD082D08375F0021E
:10154100ED127BA2EEF0A3EFF0908057E0FEA3E056
:10155100FF900001E0FD75F07AEDA424F4F582E539
:10156100F03400F583ED2583F583C083C08290803C
:101571000EE0FDD082D08375F002ED127BA2EEF079
:10158100A3EFF0908055E0FEA3E0FF900001E0FDA5
:1015910075F07AEDA42424F582E5F03401F583EDAC
:1015A1002583F583C083C08290800EE0FDD082D078
:1015B1008375F002ED127BA2EEF0A3EFF090805163
:1015C100E0FEA3E0FF900001E0FD75F07AEDA424B8
:1015D10058F582E5F03401F583ED2583F583C08369
:1015E100C08290800EE0FDD082D08375F002ED12B2
:1015F1007BA2EEF0A3EFF0908059E0FEA3E0FF9014
:101601000001E0FD75F07AEDA424A4F582E5F03443
:1016110001F583ED2583F583EE8FF0127A829080B8
:1016210057E0FEA3E0FF900001E0FD75F07AEDA424
:1016310024A6F582E5F03401F583ED2583F583EEEB
:101641008FF0127A82908055E0FEA3E0FF900001B6
:10165100E0FD75F07AEDA424A8F582E5F03401F5FA
:1016610083ED2583F583EE8FF0127A82908053E02B
:10167100FEA3E0FF900001E0FD75F07AEDA424A047
:10168100F582E5F03401F583ED2583F583EE8FF0E6
:10169100127A8290804FE0FEA3E0FF900001E0FD0E
:1016A10075F07AEDA424A2F582E5F03401F583ED1D
:1016B1002583F583EE8FF0127A8290803FE4F0A3C8
:1016C100E4F090803DE4F0A3E4F090803BE4F0A3EB
:1016D100E4F0908039E4F0A3E4F0908037E4F0A3E3
:1016E100E4F0908035E4F0A3E4F0908033E4F0A3DB
:1016F100E4F0908027127B7100000000908023129B
:101701007B710000000090801F127B7100000000BF
:1017110090801B127B7100000000908017127B717A
:1017210000000000908013127B7100000000908087
:101731000F127B7100000000908804E0FFEF60034E
:10174100021B31900001E0FF75F07AEFA424A0F5AF
:1017510082E5F03401F583EF2583F583E0FEA3E014
:10176100FF900002E0FD75F00DEDA42403F582E584
:10177100F03470F583EE8FF0127A82900001E0FF71
:1017810075F07AEFA424A4F582E5F03401F583EF36
:101791002583F583E0FEA3E0FF7C007D0A1279F743
:1017A100900002E0FD75F00DEDA42407F582E5F04F
:1017B1003470F583EE8FF0127A82900001E0FF75AC
:1017C100F07AEFA424A2F582E5F03401F583EF2548
:1017D10083F583E0FEA3E0FF900002E0FD75F00DCC
:1017E100EDA42405F582E5F03470F583EE8FF01257
:1017F1007A82900001E0FF75F07AEFA424A6F582C9
:10180100E5F03401F583EF2583F583E0FEA3E0FFE6
:101811007C007D0A1279F7900002E0FD75F00DED74
:10182100A42409F582E5F03470F583EE8FF0127A85
:1018310082900001E0FF75F07AEFA424A8F582E51B
:10184100F03401F583EF2583F583E0FEA3E0FF7C0F
:10185100007D0A1279F7900002E0FD75F00DEDA40C
:10186100240BF582E5F03470F583EE8FF0127A8265
:10187100900001E004F0908809E0FF7E00EF24D0A1
:10188100FFEE3407FE900001E0FD75F07AEDA4242F
:1018910030F582E5F03400F583ED2583F583EEF034
:1018A100A3EFF0908808E0FF900001E0FE75F07A68
:1018B100EEA42432F582E5F03400F583EE2583F5BC
:1018C10083EFF0908807E0FF900001E0FE75F07A69
:1018D100EEA42433F582E5F03400F583EE2583F59B
:1018E10083EFF09080F1E4F09080F1E0FFEFC3949A
:1018F10007400302198A9080F1E0FFEF25E0247E82
:10190100F582E43480F583E4F0A3E4F09080F1E023
:10191100FFEF25E02433F582E43480F583E4F0A37E
:10192100E4F09080F1E0FFEF25E025E0240FF5825F
:10193100E43480F583127B71000000009080F1E0B7
:10194100FFEF25E0246EF582E43480F583E4F0A313
:10195100E4F09080F1E0FFEF25E0245EF582E434CD
:1019610080F583744EF0A37420F09080F1E0FFEFD6
:1019710025E0244DF582E43480F583E4F0A3E4F01E
:101981009080F1E004F00218E9908807E0FFEF642D
:10199100016003021B31900002E0FF75F00DEFA41E
:1019A1002403F582E5F03470F583E0FEA3E0FF7CCB
:1019B100037DE81279F7900003E0FD75F00CEDA4CA
:1019C1002402F582E5F0347EF583EE8FF0127A82FF
:1019D100900002E0FF75F00DEFA42407F582E5F019
:1019E1003470F583E0FEA3E0FF7C037DE81279F714
:1019F100900003E0FD75F00CEDA42406F582E5F0FE
:101A0100347EF583EE8FF0127A82900002E0FF754A
:101A1100F00DEFA42405F582E5F03470F583E0FEC6
:101A2100A3E0FF7C037DE81279F7900003E0FD75E8
:101A3100F00CEDA42404F582E5F0347EF583EE8FFD
:101A4100F0127A82900002E0FF75F00DEFA42409F4
:101A5100F582E5F03470F583E0FEA3E0FF7C037DC1
:101A6100E81279F7900003E0FD75F00CEDA424086D
:101A7100F582E5F0347EF583EE8FF0127A829000E4
:101A810002E0FF75F00DEFA4240BF582E5F0347050
:101A9100F583E0FEA3E0FF7C037DE81279F7900077
:101AA10003E0FD75F00CEDA4240AF582E5F0347E27
:101AB100F583EE8FF0127A82900002E004F09088B4
:101AC10009E0FF7E00900002E0FD75F00DEDA42419
:101AD10001F582E5F03470F583EEF0A3EFF0908824
:101AE10008E0FF900002E0FE75F00DEEA42400F581
:101AF10082E5F03470F583EFF0908808E0FFEFB4F1
:101B0100012E900003E004F0908809E0FF7E00EFD1
:101B110024D0FFEE3407FE900003E0FD75F00CEDDC
:101B2100A42400F582E5F0347EF583EEF0A3EFF016
:101B3100908800E0FF90805DEFF0908802E0FF90D8
:101B4100808EEFF0908804E0FF90800EEFF0908897
:101B510007E0FF908009EFF0908808E0FF90800A8D
:101B6100EFF0908809E0FF7E00EF24D0FFEE34070C
:101B7100FE90800CEEF0A3EFF0908806E0FF9080DD
:101B81000BEFF0D216D0D0D082D083D0F0D0E0329B
:101B9100908123E4F0D20D90811AE0FBA3E0FAA337
:101BA100E0F9127985FF908126EFF090811DE0FB2D
:101BB100A3E0FAA3E0F9127985FF908127EFF09075
:101BC1008120E0FBA3E0FAA3E0F9127985FF90817F
:101BD10028EFF09080F2E0FFC3EF648094825022FE
:101BE100908113E0FEA3E0FF90812CEEF0A3EFF0D3
:101BF100908115E0FEA3E0FF90812EEEF0A3EFF0BF
:101C0100802E9080F2E0FFEFB4021390812CE4F07B
:101C1100A37417F090812EE4F0A3E4F08012908178
:101C21002CE4F0A3740CF090812EE4F0A37401F085
:101C3100120E13EF70FA908030E4F0908128E0FFEB
:101C41007E00EF24D0FFEE3407FE90812AEEF0A350
:101C5100EFF0200D03021DEE201303021D3D9080C5
:101C610030E0FF908129EFF09080307403F0120092
:101C7100589080F2E0FFEF127C651C8B001CA101E3
:101C81001CE0021CFF0300001D2C7B027A8079F30B
:101C9100908126E0FF9080A9EFF0120A33021D2CFB
:101CA1007B027A8079F3C003C002C001908117E002
:101CB100FBA3E0FAA3E0F9908126E0FF75F003EFC2
:101CC100A4F58285F083127BD09080A9EBF0A3EA82
:101CD100F0A3E9F0D001D002D003120A33804C7B8B
:101CE100027A8079F3908126E0FF9080A9EFF0904D
:101CF1008127E0FF9080AAEFF0120A33802D7B024A
:101D01007A8079F3908126E0FF9080A9EFF09081AD
:101D110027E0FF9080AAEFF090812AE0FEA3E0FF88
:101D21009080ABEEF0A3EFF0120A33C20DC2139014
:101D31008129E0FF908030EFF0021DEE12005890F3
:101D410080F2E0FFEF127C651D59001D6E011D9EA2
:101D5100021DBD0300001DEA7B027A8079F39081A8
:101D610026E0FF9080A9EFF0120A33807C7B027A93
:101D71008079F3C003C002C001908117E0FBA3E0AA
:101D8100FAA3E0F9127BAE9080A9EBF0A3EAF0A3ED
:101D9100E9F0D001D002D003120A33804C7B027AE1
:101DA1008079F3908126E0FF9080A9EFF090812760
:101DB100E0FF9080AAEFF0120A33802D7B027A8037
:101DC10079F3908126E0FF9080A9EFF0908127E0E0
:101DD100FF9080AAEFF090812AE0FEA3E0FF9080BF
:101DE100ABEEF0A3EFF0120A33C20DD2137F327EB5
:101DF10000120DBA908031E0FEA3E0FFD3EF9458BA
:101E0100EE940240030220F4120E13EF700302203D
:101E1100CB120E29EF127C651F41071E730B1E307A
:101E21000D1E290E000020BE908030740AF0229011
:101E31008030740AF0908126E0FF90811AE0FBA3C4
:101E4100E0FAA3E0F9EF1279CF908127E0FF9081CA
:101E51001DE0FBA3E0FAA3E0F9EF1279CF9081280E
:101E6100E0FF908120E0FBA3E0FAA3E0F9EF127913
:101E7100CF22D213D20D908125E0FFEF640B605980
:101E8100908030E0FF74262FF582E43481F583E001
:101E9100FF7E0090812CE0FCA3E0FDC3EF9DEE9C52
:101EA100401890812FE0FF908030E0FE74262EF5DF
:101EB10082E43481F583EFF08012908030E0FF748A
:101EC100262FF582E43481F583E004F090812574B6
:101ED1000BF0908124E4F0805F908124E0FFEFD348
:101EE100940A404E908030E0FF74262FF582E4344E
:101EF10081F583E0FF7E0090812CE0FCA3E0FDC32F
:101F0100EF9DEE9C401890812FE0FF908030E0FE25
:101F110074262EF582E43481F583EFF0801A9080E7
:101F210030E0FF74262FF582E43481F583E004F07C
:101F31008006908124E004F0908123E4F00220D611
:101F4100D213D20D9080F2E0FFEFB40236908030D0
:101F5100E0FFEFB40110908030E4F090812CE4F0C8
:101F6100A37417F0800F9080307401F090812CE4FD
:101F7100F0A3743BF0120E13EF70030220D680F52C
:101F81000220D69080F2E0FFEF640370679080300A
:101F9100E0FFEFC394024007908030E4F0800690A8
:101FA1008030E004F0908030E0FFEF701490812CDD
:101FB100E4F0A3740CF090812EE4F0A37401F0809E
:101FC10025908030E0FFEFB4010B90812CE4F0A369
:101FD100741FF0801190812CE4F0A37463F0908160
:101FE1002EE4F0A3E4F0120E13EF70030220D6806A
:101FF100F50220D6908125E0FFEF640760599080BB
:1020010030E0FF74262FF582E43481F583E0FF7E12
:102011000090812EE0FCA3E0FDD3EF9DEE9C5018D3
:1020210090812DE0FF908030E0FE74262EF582E451
:102031003481F583EFF08012908030E0FF74262F19
:10204100F582E43481F583E014F09081257407F082
:10205100908124E4F0805F908124E0FFEFD3940A23
:10206100404E908030E0FF74262FF582E43481F5F4
:1020710083E0FF7E0090812EE0FCA3E0FDD3EF9D85
:10208100EE9C501890812DE0FF908030E0FE742688
:102091002EF582E43481F583EFF0801A908030E0F0
:1020A100FF74262FF582E43481F583E014F0800675
:1020B100908124E004F0908123E4F0801890812540
:1020C100740EF0908124E4F0800B908125740EF061
:1020D100908124E4F0908123E0FFEFD39432400A11
:1020E100908123E4F0D20D021C3C908123E004F0A6
:1020F100021C3C22908130EFF0908130E0FFEF1222
:102101007C6521100022CC0124E40200002FE09024
:102111000003E0FF7E00908136EEF0A3EFF01200A5
:10212100587B057A51794E908136E0FEA3E0FF900D
:102131007E0075F00CEF127BA2EE75F00CA42583E6
:10214100F583E0FEA3E0FF9080A9EEF0A3EFF0128B
:102151000A337F027D0012096C7B057A5179539015
:102161008136E0FEA3E0FF907E0275F00CEF127B5A
:10217100A2EE75F00CA42583F583E0FEA3E0FF90A9
:1021810080A9EEF0A3EFF0908136E0FEA3E0FF908E
:102191007E0475F00CEF127BA2EE75F00CA4258382
:1021A100F583E0FEA3E0FF9080ABEEF0A3EFF01229
:1021B1000A337F047D0012096C7B057A51796590A1
:1021C1008136E0FEA3E0FF907E0675F00CEF127BF6
:1021D100A2EE75F00CA42583F583E0FEA3E0FF9049
:1021E10080A9EEF0A3EFF0908136E0FEA3E0FF902E
:1021F1007E0875F00CEF127BA2EE75F00CA425831E
:10220100F583E0FEA3E0FF9080ABEEF0A3EFF012C8
:102211000A337F067D0012096C7B057A517978902B
:102221008136E0FEA3E0FF907E0A75F00CEF127B91
:10223100A2EE75F00CA42583F583E0FEA3E0FF90E8
:1022410080A9EEF0A3EFF0120A33120E6BEF127CAD
:1022510065229307225C0B00002FE0900003E0FF52
:102261007E00908136E0FCA3E0FDC3ED9FEC9E4033
:10227100067E007F008010908136E0FEA3E0FFEF34
:102281002401FFEE3400FE908136EEF0A3EFF00260
:10229100211F908136E0FEA3E0FFD3EF9400EE947E
:1022A100005009900003E0FF7E008010908136E02D
:1022B100FEA3E0FFEF24FFFFEE34FFFE908136EE38
:1022C100F0A3EFF002211F2202211F907001E0FE16
:1022D100A3E0FF908136EEF0A3EFF0907000E0FFF5
:1022E100908131EFF0120058908132E4F0900002B9
:1022F100E0FF908132E0FEEED39F5050908132E0BA
:10230100FF75F00DEFA42401F582E5F03470F5833B
:10231100E0FEA3E0FF908136E0FCA3E0FDEFB50510
:1023210023EEB5041F908132E0FF75F00DEFA42478
:1023310000F582E5F03470F583E0FF908131E0FE35
:10234100EF6E6008908132E004F080A1900002E01D
:10235100FF908132E0FEEED39F400D7B057A5179EB
:1023610085120A33120E6B227F007D0012096C7BED
:10237100057A517995908132E0FF75F00DEFA42433
:1023810001F582E5F03470F583E0FEA3E0FF908073
:10239100A9EEF0A3EFF0908132E0FF75F00DEFA40C
:1023A1002400F582E5F03470F583E0FF9080ABEF17
:1023B100F0120A337F027D0012096C7B057A517994
:1023C1009E908132E0FF75F00DEFA42403F582E5C4
:1023D100F03470F583E0FEA3E0FF9080A9EEF0A356
:1023E100EFF0908132E0FF75F00DEFA42405F58246
:1023F100E5F03470F583E0FEA3E0FF9080ABEEF0F2
:10240100A3EFF0120A337F047D0012096C7B057A79
:102411005179AF908132E0FF75F00DEFA42407F5FB
:1024210082E5F03470F583E0FEA3E0FF9080A9EE31
:10243100F0A3EFF0908132E0FF75F00DEFA42409D5
:10244100F582E5F03470F583E0FEA3E0FF9080AB08
:10245100EEF0A3EFF0120A337F067D0012096C7BC8
:10246100057A5179C1908132E0FF75F00DEFA42416
:102471000BF582E5F03470F583E0FEA3E0FF908078
:10248100A9EEF0A3EFF0120A33120E6BEF127C6586
:1024910024BE07249B0B00002FE0900002E0FF9078
:1024A1008132E0FEEEC39F40047F008008908132BC
:1024B100E0FFEF04FF908132EFF00222E6908132DB
:1024C100E0FFEFD394005007900002E0FF800890F6
:1024D1008132E0FFEF14FF908132EFF00222E62219
:1024E1000222E6900001E0FF75F07AEFA424AAF53C
:1024F10082E5F03401F583EF2583F583E0FEA3E067
:10250100FFEF4E7007908134E4F0800D900001E000
:10251100FFEF04FF908134EFF0900001E0FF75F0D0
:102521007AEFA42430F582E5F03400F583EF2583BA
:10253100F583E0FEA3E0FF908136EEF0A3EFF0908B
:102541000001E0FF75F07AEFA42432F582E5F03462
:1025510000F583EF2583F583E0FF908131EFF09063
:102561000001E0FF75F07AEFA42433F582E5F03441
:1025710000F583EF2583F583E0FF908133EFF012BF
:102581000058908132E4F0908132E0FFEFD3944F14
:102591004003022615908132E0FF75F07AEFA42402
:1025A10030F582E5F03400F583EF2583F583E0FE15
:1025B100A3E0FF908136E0FCA3E0FDEF6D7002EE39
:1025C1006C7048908132E0FF75F07AEFA42432F507
:1025D10082E5F03400F583EF2583F583E0FF9081F8
:1025E10031E0FEEFB50624908132E0FF75F07AEF1D
:1025F100A42433F582E5F03400F583EF2583F583D8
:10260100E0FF908133E0FEEF6E6009908132E004DB
:10261100F0022588908132E0FFEFD3944F400D7B8B
:10262100057A5179CD120A33120E6B22908135E46D
:10263100F0120058C20B908135E0FFEFC3940840BF
:1026410003022C447F007D0012096C7B057A5179CD
:10265100DB908132E0FF75F07AEFA42432F582E558
:10266100F03400F583EF2583F583E0FF9080A9EF37
:10267100F0908132E0FF75F07AEFA42433F582E522
:10268100F03400F583EF2583F583E0FF9080AAEF16
:10269100F0908132E0FF75F07AEFA42430F582E505
:1026A100F03400F583EF2583F583E0FEA3E0FFEF2F
:1026B1002430FF9080ABEFF0908135E0FFEF75F0B3
:1026C10003A4FFEF04FF9080ACEFF0908135E0FFB1
:1026D100EF75F003A4FFEF2402FF9080ADEFF090BF
:1026E1008135E0FFEF75F003A4FFEF2403FF908035
:1026F100AEEFF0120A337F017D0012096C7B057A7F
:102701005179F3908132E0FF75F07AEFA42434F52A
:1027110082E5F03400F583EF2583F583C083C08221
:10272100908135E0FFD082D08375F006EF127BA255
:10273100E0FEA3E0FF9080A9EEF0A3EFF0908132DC
:10274100E0FF75F07AEFA42436F582E5F03400F568
:1027510083EF2583F583C083C082908135E0FFD06C
:1027610082D08375F006EF127BA2E0FEA3E0FF901A
:1027710080ABEEF0A3EFF0908132E0FF75F07AEFDD
:10278100A42438F582E5F03400F583EF2583F58341
:10279100C083C082908135E0FFD082D08375F0067E
:1027A100EF127BA2E0FEA3E0FF9080ADEEF0A3EF7D
:1027B100F0120A337F027D0012096C7B057A52798F
:1027C10002908132E0FF75F07AEFA42464F582E58E
:1027D100F03400F583EF2583F583C083C0829081B7
:1027E10035E0FFD082D08375F006EF127BA2E0FEC8
:1027F100A3E0FF9080A9EEF0A3EFF0908132E0FF1B
:1028010075F07AEFA42466F582E5F03400F583EFE4
:102811002583F583C083C082908135E0FFD082D0CB
:102821008375F006EF127BA2E0FEA3E0FF9080AB80
:10283100EEF0A3EFF0908132E0FF75F07AEFA4247F
:1028410068F582E5F03400F583EF2583F583C083D5
:10285100C082908135E0FFD082D08375F006EF12FF
:102861007BA2E0FEA3E0FF9080ADEEF0A3EFF012BB
:102871000A337F037D0012096C7B057A527911902E
:102881008132E0FF75F07AEFA42494F582E5F0340B
:1028910000F583EF2583F583C083C082908135E005
:1028A100FFD082D08375F006EF127BA2E0FEA3E099
:1028B100FF9080A9EEF0A3EFF0908132E0FF75F078
:1028C1007AEFA42496F582E5F03400F583EF2583B1
:1028D100F583C083C082908135E0FFD082D08375BB
:1028E100F006EF127BA2E0FEA3E0FF9080ABEEF0DA
:1028F100A3EFF0908132E0FF75F07AEFA42498F510
:1029010082E5F03400F583EF2583F583C083C0822F
:10291100908135E0FFD082D08375F006EF127BA263
:10292100E0FEA3E0FF9080ADEEF0A3EFF0120A33DA
:102931007F047D0012096C7B057A527920908132E7
:10294100E0FF75F07AEFA424C4F582E5F03400F5D8
:1029510083EF2583F583C083C082908135E0FFD06A
:1029610082D08375F006EF127BA2E0FEA3E0FF9018
:1029710080A9EEF0A3EFF0908132E0FF75F07AEFDD
:10298100A424C6F582E5F03400F583EF2583F583B1
:10299100C083C082908135E0FFD082D08375F0067C
:1029A100EF127BA2E0FEA3E0FF9080ABEEF0A3EF7D
:1029B100F0908132E0FF75F07AEFA424C8F582E54A
:1029C100F03400F583EF2583F583C083C0829081C5
:1029D10035E0FFD082D08375F006EF127BA2E0FED6
:1029E100A3E0FF9080ADEEF0A3EFF0120A337F0574
:1029F1007D0012096C7B057A52792F908132E0FFBC
:102A010075F07AEFA424F4F582E5F03400F583EF54
:102A11002583F583C083C082908135E0FFD082D0C9
:102A21008375F006EF127BA2E0FEA3E0FF9080A980
:102A3100EEF0A3EFF0908132E0FF75F07AEFA4247D
:102A4100F6F582E5F03400F583EF2583F583C08345
:102A5100C082908135E0FFD082D08375F006EF12FD
:102A61007BA2E0FEA3E0FF9080ABEEF0A3EFF0903D
:102A71008132E0FF75F07AEFA424F8F582E5F034B5
:102A810000F583EF2583F583C083C082908135E013
:102A9100FFD082D08375F006EF127BA2E0FEA3E0A7
:102AA100FF9080ADEEF0A3EFF0120A337F067D00B8
:102AB10012096C7B057A52793E908132E0FF75F004
:102AC1007AEFA42424F582E5F03401F583EF258320
:102AD100F583C083C082908135E0FFD082D08375B9
:102AE100F006EF127BA2E0FEA3E0FF9080A9EEF0DA
:102AF100A3EFF0908132E0FF75F07AEFA42426F580
:102B010082E5F03401F583EF2583F583C083C0822C
:102B1100908135E0FFD082D08375F006EF127BA261
:102B2100E0FEA3E0FF9080ABEEF0A3EFF0908132E6
:102B3100E0FF75F07AEFA42428F582E5F03401F581
:102B410083EF2583F583C083C082908135E0FFD078
:102B510082D08375F006EF127BA2E0FEA3E0FF9026
:102B610080ADEEF0A3EFF0120A337F077D0012096A
:102B71006C7B057A52794D908132E0FF75F07AEFE6
:102B8100A42458F582E5F03401F583EF2583F5831C
:102B9100C083C082908135E0FFD082D08375F0067A
:102BA100EF127BA2E0FEA3E0FFEF2438FFEE34FF3B
:102BB100FE9080A9EEF0A3EFF0908132E0FF75F076
:102BC1007AEFA4245AF582E5F03401F583EF2583E9
:102BD100F583C083C082908135E0FFD082D08375B8
:102BE100F006EF127BA2E0FEA3E0FFEF2438FFEE38
:102BF10034FFFE9080ABEEF0A3EFF0908132E0FF66
:102C010075F07AEFA4245CF582E5F03401F583EFE9
:102C11002583F583C083C082908135E0FFD082D0C7
:102C21008375F006EF127BA2E0FEA3E0FFEF2438EC
:102C3100FFEE34FFFE9080ADEEF0A3EFF0120A3309
:102C4100022F477B057A52795B908132E0FF75F064
:102C51007AEFA42432F582E5F03400F583EF258381
:102C6100F583E0FF9080A9EFF0908132E0FF75F0ED
:102C71007AEFA42433F582E5F03400F583EF258360
:102C8100F583E0FF9080AAEFF0908132E0FF75F0CC
:102C91007AEFA42430F582E5F03400F583EF258343
:102CA100F583E0FEA3E0FF9080ABEEF0A3EFF0121E
:102CB1000A337F017D0012096C7B057A5279749089
:102CC1008132E0FF75F07AEFA42488F582E5F034D3
:102CD10001F583EF2583F583E0FEA3E0FF9080A952
:102CE100EEF0A3EFF0908132E0FF75F07AEFA424CB
:102CF1008AF582E5F03401F583EF2583F583E0FE63
:102D0100A3E0FF9080ABEEF0A3EFF0120A337F0255
:102D11007D0012096C7B057A527981908132E0FF46
:102D210075F07AEFA4248CF582E5F03401F583EF98
:102D31002583F583E0FEA3E0FF9080A9EEF0A3EFE9
:102D4100F0908132E0FF75F07AEFA4248EF582E5F0
:102D5100F03401F583EF2583F583E0FEA3E0FF90D6
:102D610080ABEEF0A3EFF0120A337F037D0012096E
:102D71006C7B057A52798E908132E0FF75F07AEFA3
:102D8100A42490F582E5F03401F583EF2583F583E2
:102D9100E0FEA3E0FF9080A9EEF0A3EFF090813276
:102DA100E0FF75F07AEFA42492F582E5F03401F5A5
:102DB10083EF2583F583E0FEA3E0FF9080ABEEF087
:102DC100A3EFF0120A337F047D0012096C7B057AB0
:102DD10052799B908132E0FF75F07AEFA42494F54B
:102DE10082E5F03401F583EF2583F583E0FEA3E06E
:102DF100FF9080A9EEF0A3EFF0908132E0FF75F033
:102E01007AEFA42496F582E5F03401F583EF25836A
:102E1100F583E0FEA3E0FF9080ABEEF0A3EFF012AC
:102E21000A337F057D0012096C7B057A5279A890DF
:102E31008132E0FF75F07AEFA42498F582E5F03451
:102E410001F583EF2583F583E0FEA3E0FF9080A9E0
:102E5100EEF0A3EFF0908132E0FF75F07AEFA42459
:102E61009AF582E5F03401F583EF2583F583E0FEE1
:102E7100A3E0FF9080ABEEF0A3EFF0120A337F06E0
:102E81007D0012096C7B057A5279B5908132E0FFA1
:102E910075F07AEFA4249CF582E5F03401F583EF17
:102EA1002583F583E0FEA3E0FF9080A9EEF0A3EF78
:102EB100F0908132E0FF75F07AEFA4249EF582E56F
:102EC100F03401F583EF2583F583E0FEA3E0FF9065
:102ED10080ABEEF0A3EFF0120A337F077D001209F9
:102EE1006C7B057A5279C2908132E0FF75F07AEFFE
:102EF100A42454F582E5F03401F583EF2583F583AD
:102F0100E0FEA3E0FFEF2438FFEE34FFFE9080A93E
:102F1100EEF0A3EFF0908132E0FF75F07AEFA42498
:102F210056F582E5F03401F583EF2583F583E0FE64
:102F3100A3E0FFEF2438FFEE34FFFE9080ABEEF00C
:102F4100A3EFF0120A33D20B120E6BEF127C652F36
:102F51008C072F5D0B2FBA0D00002FE0908134E01C
:102F6100FFEF7007900001E0FF80027F4F908132F8
:102F7100E0FEEEC39F40047F008008908132E0FFB5
:102F8100EF04FF908132EFF0022632908132E0FFB0
:102F9100EFD394005013908134E0FFEF700790005D
:102FA10001E0FF80027F4F8008908132E0FFEF1443
:102FB100FF908132EFF0022632908135E0FFEFC3BE
:102FC100940840047F008008908135E0FFEF04FF02
:102FD100908135EFF002263222022632022580222C
:102FE100908139E4F07B057A71790CC003C002C08D
:102FF100017B027A81793AA801AC02AD03D001D0FC
:1030010002D0037E007F091279531200587B057AA2
:103011005279F5120A33908138E4F0908138E0FF5B
:10302100EFC39403506E7B057A537902120A3390F1
:103031008139E0FF908138E0FEEEB5070B7B057A20
:10304100537905120A3380097B057A537908120AEC
:10305100337B057A53790BC003C002C001908138DC
:10306100E0FFEF75F003A4243AF582E43481F5839F
:10307100E0FBA3E0FAA3E0F99080A9EBF0A3EAF06A
:10308100A3E9F0D001D002D003120A33908138E0D5
:1030910004F08087120E6BEF127C6530C80730A9EF
:1030A1000B30E70D000030F4908139E0FFEFC3945D
:1030B1000240047F008008908139E0FFEF04FF9017
:1030C1008139EFF002300B908139E0FFEFD39400AA
:1030D10050047F028008908139E0FFEF14FF908156
:1030E10039EFF002300B908139E0FF1220F52222F6
:1030F10002300B22D210D20A9074D6E0FEA3E0FF78
:10310100EF4E7004C20E8002D20E900001E0FFEF7C
:1031110070047F008008900001E0FFEF14FF9081B0
:1031210045EFF0FF908144EFF0200A0302323B1299
:1031310000587B057A53790E908144E0FF75F07A4F
:10314100EFA42430F582E5F03400F583EF2583F513
:1031510083E0FEA3E0FF9080A9EEF0A3EFF0908161
:1031610044E0FF75F07AEFA42432F582E5F03400F3
:10317100F583EF2583F583E0FF9080ABEFF090813D
:1031810044E0FF75F07AEFA42433F582E5F03400D2
:10319100F583EF2583F583E0FF9080ACEFF0120A11
:1031A10033120E6BEF127C6531EE0731B60B323202
:1031B1000D00003A72908144E004F0300E159081C8
:1031C10044E0FFEF6450600302312A908144E4F04F
:1031D10002312A900001E0FF908144E0FEEED39F8E
:1031E100500302312A908144E4F002312A300E1F4B
:1031F100908144E0FFEFD39400400A908144E0FFC6
:10320100EF14FF80027F4F908144EFF002312A904A
:103211008144E0FFEFD39400400A908144E0FFEF46
:1032210014FF8005900001E0FF908144EFF002312E
:103231002AC20A02312A2202312AD20A908144E0AA
:10324100FF908145EFF0200A030234641200587B9D
:10325100057A537932908144E0FF75F07AEFA42426
:1032610030F582E5F03400F583EF2583F583E0FE48
:10327100A3E0FF9080A9EEF0A3EFF0908144E0FF7E
:1032810075F07AEFA42432F582E5F03400F583EF8E
:103291002583F583E0FF9080ABEFF0908144E0FF60
:1032A10075F07AEFA42433F582E5F03400F583EF6D
:1032B1002583F583E0FF9080ACEFF0908145E0FF3E
:1032C10075F07AEFA42430F582E5F03400F583EF50
:1032D1002583F583E0FEA3E0FF9080ADEEF0A3EF40
:1032E100F0908145E0FF75F07AEFA42432F582E594
:1032F100F03400F583EF2583F583E0FF9080AFEF95
:10330100F0908145E0FF75F07AEFA42433F582E572
:10331100F03400F583EF2583F583E0FF9080B0EF73
:10332100F0120A33120E6BEF127C6533CA07333980
:103331000B345B0D00003A72300E69900001E0FF22
:10334100908144E0FEEED39F4035908145E0FFEF50
:10335100B44F08908145E4F0023247900001E0FF4C
:10336100908145E0FEEEB5070D908144E0FF90812C
:1033710045EFF0023247908145E004F00232479078
:103381000001E0FF908145E0FEEEB5070790814422
:10339100E0FF8008908145E0FFEF04FF908145EF59
:1033A100F0023247900001E0FF908145E0FEEEB56A
:1033B1000707908144E0FF8008908145E0FFEF041A
:1033C100FF908145EFF0023247300E69900001E035
:1033D100FF908144E0FEEED39F4035908145E0FFB0
:1033E100EF7009908145744FF0023247908144E0BB
:1033F100FF908145E0FEEEB5070D900001E0FF90E2
:103401008145EFF0023247908145E014F0023247E6
:10341100908144E0FF908145E0FEEEB50707900002
:1034210001E0FF8008908145E0FFEF14FF908145A6
:10343100EFF0023247908144E0FF908145E0FEEEDB
:10344100B50707900001E0FF8008908145E0FFEF9C
:1034510014FF908145EFF0023247C20A023247223F
:103461000232471200587B057A517942120A33C25F
:10347100147B057A53796D120A337B057A717915BC
:10348100120A337F00120F46908144E0FF9081437E
:10349100EFF07B057A53797E908143E0FF75F07AF6
:1034A100EFA42430F582E5F03400F583EF2583F5B0
:1034B10083E0FEA3E0FF9080A9EEF0A3EFF09081FE
:1034C10043E0FF75F07AEFA42432F582E5F0340091
:1034D100F583EF2583F583E0FF9080ABEFF09081DA
:1034E10043E0FF75F07AEFA42433F582E5F0340070
:1034F100F583EF2583F583E0FF9080ACEFF0120AAE
:10350100337B057A53798F120A33908146E4F09028
:103511008146E0FFEFC3941840030236DB7B057A56
:103521005379D3908146E0FFEF04FF9080A9EFF03B
:10353100908143E0FF75F07AEFA42464F582E5F011
:103541003400F583EF2583F583C083C082908146E3
:10355100E0FFD082D08375F002EF127BA2E0FEA3E0
:10356100E0FF9080AAEEF0A3EFF0908143E0FF75B9
:10357100F07AEFA42494F582E5F03400F583EF2589
:1035810083F583C083C082908146E0FFD082D083DF
:1035910075F002EF127BA2E0FEA3E0FF9080ACEE9B
:1035A100F0A3EFF0908143E0FF75F07AEFA42434AB
:1035B100F582E5F03400F583EF2583F583C083C000
:1035C10082908146E0FFD082D08375F002EF127BBA
:1035D100A2E0FEA3E0FF9080AEEEF0A3EFF09081B9
:1035E10043E0FF75F07AEFA424C4F582E5F03400DE
:1035F100F583EF2583F583C083C082908146E0FF88
:10360100D082D08375F002EF127BA2E0FEA3E0FF2F
:103611009080B0EEF0A3EFF0908143E0FF75F07A77
:10362100EFA424F4F582E5F03400F583EF2583F56A
:1036310083C083C082908146E0FFD082D08375F041
:1036410002EF127BA2E0FEA3E0FF9080B2EEF0A3B6
:10365100EFF0908143E0FF75F07AEFA42424F58226
:10366100E5F03401F583EF2583F583C083C08290B3
:103671008146E0FFD082D08375F002EF127BA2E099
:10368100FEA3E0FF9080B4EEF0A3EFF0908143E061
:10369100FF75F07AEFA42458F582E5F03401F58343
:1036A100EF2583F583C083C082908146E0FFD082FD
:1036B100D08375F002EF127BA2E0FEA3E0FFEF24BE
:1036C10038FFEE34FFFE9080B6EEF0A3EFF0120A61
:1036D10033908146E004F00235107B057A5379F886
:1036E100908143E0FF75F07AEFA4248CF582E5F038
:1036F1003401F583EF2583F583E0FEA3E0FF90809D
:10370100A9EEF0A3EFF0908143E0FF75F07AEFA40A
:103711002490F582E5F03401F583EF2583F583E00C
:10372100FEA3E0FF9080ABEEF0A3EFF0908143E0C9
:10373100FF75F07AEFA42488F582E5F03401F58372
:10374100EF2583F583E0FEA3E0FF9080ADEEF0A3CB
:10375100EFF0908143E0FF75F07AEFA42494F582B5
:10376100E5F03401F583EF2583F583E0FEA3E0FF67
:103771009080AFEEF0A3EFF0908143E0FF75F07A17
:10378100EFA42498F582E5F03401F583EF2583F564
:1037910083E0FEA3E0FF9080B1EEF0A3EFF0908113
:1037A10043E0FF75F07AEFA4249CF582E5F0340143
:1037B100F583EF2583F583E0FEA3E0FF9080B3EE70
:1037C100F0A3EFF0908143E0FF75F07AEFA4245469
:1037D100F582E5F03401F583EF2583F583E0FEA35F
:1037E100E0FFEF2438FFEE34FFFE9080B5EEF0A34A
:1037F100EFF0120A337B057A547922908143E0FF7E
:1038010075F07AEFA4248EF582E5F03401F583EFAB
:103811002583F583E0FEA3E0FF9080A9EEF0A3EFFE
:10382100F0908143E0FF75F07AEFA42492F582E5F0
:10383100F03401F583EF2583F583E0FEA3E0FF90EB
:1038410080ABEEF0A3EFF0908143E0FF75F07AEFEB
:10385100A4248AF582E5F03401F583EF2583F5830D
:10386100E0FEA3E0FF9080ADEEF0A3EFF090814386
:10387100E0FF75F07AEFA42496F582E5F03401F5C6
:1038810083EF2583F583E0FEA3E0FF9080AFEEF0A8
:10389100A3EFF0908143E0FF75F07AEFA4249AF54D
:1038A10082E5F03401F583EF2583F583E0FEA3E0A3
:1038B100FF9080B1EEF0A3EFF0908143E0FF75F04F
:1038C1007AEFA4249EF582E5F03401F583EF258398
:1038D100F583E0FEA3E0FF9080B3EEF0A3EFF0905C
:1038E1008143E0FF75F07AEFA42456F582E5F034C8
:1038F10001F583EF2583F583E0FEA3E0FFEF243894
:10390100FFEE34FFFE9080B5EEF0A3EFF0120A3324
:103911007B057A54794C908143E0FF75F07AEFA4EE
:1039210024A4F582E5F03401F583EF2583F583E0E6
:10393100FEA3E0FF9080A9EEF0A3EFF0908143E0B9
:10394100FF75F07AEFA424A6F582E5F03401F58342
:10395100EF2583F583E0FEA3E0FF9080ABEEF0A3BB
:10396100EFF0908143E0FF75F07AEFA424A8F5828F
:10397100E5F03401F583EF2583F583E0FEA3E0FF55
:103981009080ADEEF0A3EFF0908143E0FF75F07A07
:10399100EFA424A0F582E5F03401F583EF2583F54A
:1039A10083E0FEA3E0FF9080AFEEF0A3EFF0908103
:1039B10043E0FF75F07AEFA424A2F582E5F034012B
:1039C100F583EF2583F583E0FEA3E0FF9080B1EE60
:1039D100F0A3EFF0120A33908145E0FF908144E0BB
:1039E100FEEED39F501D908143E004F0908145E0AD
:1039F100FF908143E0FEEED39F5003023493803069
:103A0100023493908145E0FF908143E0FEEE6F60C8
:103A11001F908143E0FFEFC3944F40047F00800873
:103A2100908143E0FFEF04FF908143EFF002349374
:103A31007B057A54799490800CE0FEA3E0FF90809E
:103A4100A9EEF0A3EFF090800AE0FF9080ABEFF0D9
:103A5100908009E0FF9080ACEFF090800EE0FF9045
