:10404300D0EEB5E7B3D8B5E7D1B9CFB5CAFDA3BABA
:1040530000B7F8C9E4C1BFCFB5CAFDA3BA00CEC249
:10406300B6C8BCC6CBE3CFB5CAFDA3BA00B7E7BB9E
:10407300FAB5E7C1F7CFB5CAFD00B7C5B5E7B5E7F0
:10408300C1F7CFB5CAFDA3BA00B3E4B5E7B5E7C13D
:10409300F7CFB5CAFDA3BA00B7F100CAC700B4F29F
:1040A300D3A1BBFACEB4D7BCB1B8BAC32E2E2E0A55
:1040B3000AB0B4C8B7B6A8BCFCBCCCD0F82E0A0A68
:1040C300B0B4C9E8D6C3BCFCCDCBB3F6B4F2D3A12C
:1040D3002E00D5FDD4DAB4F2D3A12E2E2E00256402
:1040E300C4EA000A0AB7F8C9E4C1BF3A25646B57AA
:1040F300000A0AB3E4B5E7B5E7C1BF3A25646B41EB
:1041030048000A0AB7C5B5E7B5E7C1BF3A25646BEE
:10411300414800CEDED6B8B6A8CAB1B6CECAFDBEF7
:10412300DD21002564C4EA2562D4C2000A0AB7F877
:10413300C9E4C1BF3A256457000A0AB3E4B5E7B539
:10414300E7C1BF3A25644148000A0AB7C5B5E7B5D8
:10415300E7C1BF3A2564414800C3BBD3D0D6B8B644
:10416300A8CAFDBEDD210025622D25622D25642010
:10417300417665726167650054696D653A20256211
:104183003A30302025623A30302025623A30300010
:10419300426174743A20256F20256F20256F5600E5
:1041A300526164693A202564202564202564570000
:1041B300436861723A20256F20256F20256F4100E7
:1041C300446973633A20256F20256F20256F4100D2
:1041D30054656D703A20256F20256F20256F0025CB
:1041E300622D25622D2564204D6178696D756D26DC
:1041F3004D696E696D756D00426174743A20256F67
:1042030020256F5600526164693A20256420256495
:104213005700436861723A20256F20256F4100449F
:104223006973633A20256F20256F410054656D70D3
:104233003A20256F20256F00E4AFC0C0C4EAB6C89A
:10424300CAFDBEDD00E4AFC0C0D4C2B7DDCAFDBE47
:10425300DD00E4AFC0C0C3BFCCECCAFDBEDD00C00F
:10426300FACAB7CAFDBEDDE4AFC0C0000A0A003E09
:104273003E00202000257300C0FACAB7CAFDBEDD88
:10428300B4F2D3A10A0AC6F0CABCC8D5C6DA3A2525
:1042930064C4EA2562D4C22562C8D500C0FACAB78D
:1042A300CAFDBEDDB4F2D3A10A0AC6F0CABCC8D5A2
:1042B300C6DA3A2564C4EA2562D4C22562C8D50A9F
:1042C3000ABDE1CAF8C8D5C6DA3A2564C4EA25624C
:1042D300D4C22562C8D5000909C0FACAB7CAFDBE4F
:1042E300DDB4F2D3A10A0D000A0D2564C4EA2562E8
:1042F300D4C22562C8D50A0D00CAB1BCE409B7F817
:10430300C9E4C1BF09D0EEB5E7B3D8B5E7D1B90960
:10431300B3E4B5E7B5E7C1F709B7C5B5E7B5E7C195
:10432300F709CEC2B6C80A0D0025623A3030092516
:10433300645709256F5609256F4109256F410925E2
:104343006FA1E60A0D00B5B1CCECD7EEB4F3D6B548
:104353000925645709256F5609256F4109256F41C2
:1043630009256FA1E60A0D00B5B1CCECD7EED0A1BB
:10437300D6B50925645709256F5609256F410925C7
:104383006F4109256FA1E60A0D00B3E4B5E7B5E770
:10439300C1BF3A256F416809B7C5B5E7B5E7C1BFE6
:1043A3003A256F416809B7F8C9E4C1BF3A25645794
:1043B3000A0D000A0DB4F2D3A1CAB1BCE4A3BA2515
:1043C30064C4EA2562D4C22562C8D52562CAB12570
:1043D30062B7D60A0D00CFB5CDB3B2CECAFDC9E8D8
:1043E300D6C30A0AB0B4C8B7B6A8BCFCBCCCD0F8D4
:1043F3000A0AC6E4CBFCBCFCCDCBB3F60A0AD7A2AF
:10440300D2E2A3BAD0E8D2AAD7A8D2B5C8CBD4B146
:10441300B5F7D5FBA3A100257325660A0AB0B4BC82
:10442300D3BCF5BCFCB5F7D5FB0A0AB0B4C9E8D6D2
:10443300C3BCFCBBD6B8B4C8B1CAA1D6B50A0AB0CE
:10444300B4C8B7B6A8BCFCB1A3B4E600B8F1CABD02
:10445300BBAFCAFDBEDDB4E6B4A2C7F8A3BF0A0A68
:10446300B0B4C8B7B6A8BCFCC8B7C8CF0A0AB0B4C2
:10447300C6E4CBFCBCFCCDCBB3F600C8B7B6A8D220
:10448300AAB8F1CABDBBAFCAFDBEDDC7F8A3BF0A58
:104493000AB0B4C8B7B6A8BCFCC8B7C8CF0A0AB03C
:1044A300B4C6E4CBFCBCFCCDCBB3F600D5FDD4DA6B
:1044B300B8F1CABDBBAFCAFDBEDDC7F82E2E2E0AAA
:1044C3000AC7EBB5C8BAF22E2E2E00534A432D323B
:1044D300D0CDD6C7C4DCCAFDBEDDB2C9BCAFC6F7FA
:1044E30000CAFDBEDDC7F8D3D0B4EDCEF3210A0A6E
:1044F300C7EBD6B4D0D0CFB5CDB3B3F5CABCBBAF41
:104503002E00B5B1C7B0CAB1BCE4C8D5C6DA000A3B
:104513000A2562CAB12562B7D62562C3EB202020E3
:1045230020000A0A2564C4EA2562D4C22562C8D5DC
:104533002020202000D0EEB5E7B3D8B5E7D1B920CD
:1045430020202020000A0AB5B1C7B0D6B53A256F9E
:104553005620202020000A0ABDF1C8D5D7EEB4F3B7
:10456300D6B53A256F56202020200A0ABDF1C8D5BA
:10457300D7EED0A1D6B53A256F562020202000B320
:10458300E4B5E7B5E7C1F73A2020202020000A0A66
:10459300B5B1C7B0D6B53A256F4120202020000A17
:1045A3000ABDF1C8D5D7EEB4F3D6B53A256F41208D
:1045B3002020200A0ABDF1C8D5D7EED0A1D6B53A3E
:1045C300256F412020202000B7C5B5E7B5E7C1F727
:1045D3003A202020202000B7F8C9E4C1BF3A2020A8
:1045E300202020000A0AB5B1C7B0D6B53A256457D2
:1045F3002F6D20202020000A0ABDF1C8D5D7EEB4C4
:10460300F3D6B53A2564572F6D202020200A0ABD22
:10461300F1C8D5D7EED0A1D6B53A2564572F6D2072
:1046230020202000BBB7BEB3CEC2B6C83A2020209C
:10463300202020000A0AB5B1C7B0D6B53A256FA12C
:10464300E620202020000A0ABDF1C8D5D7EEB4F336
:10465300D6B53A256FA1E6202020200A0ABDF1C86D
:10466300D5D7EED0A1D6B53A256FA1E620202020DC
:104673000000000000000000007E8195B1B195812B
:104683007E7EFFEBCFCFEBFF7E0E1F3F7E3F1F0EE5
:1046930000081C3E7F3E1C080018BAFFFFFFBA1833
:1046A3000010B8FCFFFCB810000000183C3C1800D8
:1046B30000FFFFE7C3C3E7FFFF003C664242663CDF
:1046C30000FFC399BDBD99C3FF70F88888FD7F07BC
:1046D3000F004E5FF1F15F4E00C0E0FF7F0505075D
:1046E30007C0FF7F0505657F3F995A3CE7E73C5AC2
:1046F300997F3E3E1C1C08080008081C1C3E3E7F98
:1047030000002466FFFF662400005F5F00005F5F18
:1047130000060F097F7F017F7F40DABFA5FD5903A4
:104723000200707070707070008094B6FFFFB694D2
:10473300800004067F7F0604000010307F7F301066
:10474300000808082A3E1C0800081C3E2A0808081E
:10475300003C3C202020202000081C3E08083E1C72
:104763000830383C3E3E3C3830060E1E3E3E1E0EA0
:1047730006000000000000000000065F5F06000066
:10478300000007070007070000147F7F147F7F14D2
:1047930000242E6B6B3A120000466630180C6662DA
:1047A30000307A4F5D377A480004070300000000A9
:1047B30000001C3E63410000000041633E1C0000FA
:1047C30000082A3E1C1C3E2A0808083E3E08080032
:1047D300000080E0600000000008080808080800E6
:1047E3000000006060000000006030180C06030148
:1047F300003E7F71594D7F3E0040427F7F40400025
:1048030000627359496F660000226349497F36008D
:1048130000181C16537F7F5000276745457D3900DC
:10482300003C7E4B4979300000030371790F070088
:1048330000367F49497F360000064F49693F1E0015
:104843000000006666000000000080E666000000CD
:1048530000081C366341000000242424242424007F
:1048630000004163361C080000020351590F060083
:10487300003E7F415D5D1F1E007C7E13137E7C0026
:1048830000417F7F49497F36001C3E6341416322DB
:1048930000417F7F41633E1C00417F7F495D41634F
:1048A30000417F7F491D0103001C3E634151737228
:1048B300007F7F08087F7F000000417F7F41000069
:1048C30000307040417F3F0100417F7F081C7763C8
:1048D30000417F7F41406070007F7F0E1C0E7F7F11
:1048E300007F7F060C187F7F001C3E6341633E1CE4
:1048F30000417F7F49090F06001E3F21717F5E0043
:1049030000417F7F09197F6600266F4D597332007E
:104913000003417F7F410300007F7F40407F7F0092
:10492300001F3F60603F1F00007F7F3018307F7F94
:104933000043673C183C674300074F78784F0700F4
:1049430000476371594D677300007F7F4141000049
:10495300000103060C183060000041417F7F000016
:1049630000080C0603060C0800808080808080808D
:10497300800000030704000000207454543C784076
:1049830000417F3F4848783000387C44446C28001D
:1049930000307848493F7F4000387C54545C18000D
:1049A30000487E7F490302000098BCA4A4F87C045D
:1049B30000417F7F08047C780000447D7D40000037
:1049C3000060E08080FD7D0000417F7F10386C44F3
:1049D3000000417F7F400000007C7C18381C7C78FD
:1049E300007C7C04047C780000387C44447C3800E0
:1049F3000084FCF8A4243C1800183C24A4F8FC848C
:104A030000447C784C041C1800485C545474240003
:104A13000000043E7F442400003C7C40403C7C403A
:104A2300001C3C60603C1C00003C7C7038707C3C8B
:104A330000446C3810386C44009CBCA0A0FC7C0083
:104A4300004C64745C4C64000008083E77414100EC
:104A53000000000077770000004141773E0808001E
:104A630000020301030203010070784C464C787086
:104A7300000E9F91B1FB4A00003A7A40407A7A4097
:104A830000387C54555D19000002237555557D7B14
:104A930042217554547D794000217555547C7840EA
:104AA30000207457577C784000183CA4A4E44000CD
:104AB30000023B7D55555D1B02397D54545D190041
:104AC30000397D55545C18000001457C7C41010090
:104AD300000203457D7D43020001457D7C400000CB
:104AE30000797D1612167D790070782B2B78700073
:104AF30000447C7C5555450000207454547C7C5400
:104B0300547C7E0B097F7F4900327B49497B32000D
:104B130000327A48487A320000327A4A48783000C4
:104B2300003A7B41417B7A40003A7A4240787840B0
:104B3300009ABAA0A0FA7A000001193C66663C19F3
:104B4300013D7D40407D3D0000183C24E7E72424DF
:104B530000687E7F49436620002B2FFCFC2F2B002F
:104B630000FFFF09092FF6F8A040C088FE7F090364
:104B730002207454557D79400000447D7D4100003E
:104B8300003078484A7A320000387840427A7A40D6
:104B9300007A7A0A0A7A7000007D7D19317D7D00E2
:104BA3000000262F292F2F280000262F292F26002B
:104BB3000030784D456020000038380808080800A8
:104BC3000008080808383800004F6F3018CCEEBBD7
:104BD300914F6F30186C76FBF90000007B7B00006F
:104BE30000081C3622081C362222361C0822361CDA
:104BF30008AA005500AA005500AA55AA55AA55AA05
:104C030055DDFFAA77DDAAFF77000000FFFF000054
:104C130000101010FFFF000000141414FFFF000029
:104C2300001010FFFF00FFFF001010F0F010F0F075
:104C330000141414FCFC0000001414F7F700FFFF29
:104C4300000000FFFF00FFFF001414F4F404FCFC59
:104C53000014141717101F1F0010101F1F101F1F01
:104C6300001414141F1F000000101010F0F00000B7
:104C7300000000001F1F1010101010101F1F101035
:104C830010101010F0F0101010000000FFFF1010B3
:104C9300101010101010101010101010FFFF101033
:104CA30010000000FFFF1414140000FFFF00FFFFBB
:104CB3001000001F1F101717140000FCFC04F4F46D
:104CC3001414141717101717141414F4F404F4F429
:104CD300140000FFFF00F7F7141414141414141431
:104CE300141414F7F700F7F7141414141717141403
:104CF3001410101F1F101F1F10141414F4F4141495
:104D0300141010F0F010F0F01000001F1F101F1F00
:104D1300100000001F1F141414000000FCFC1414E6
:104D2300140000F0F010F0F0101010FFFF10FFFF60
:104D330010141414FFFF1414141010101F1F00007C
:104D430000000000F0F0101010FFFFFFFFFFFFFF57
:104D5300FFF0F0F0F0F0F0F0F0FFFFFFFF000000D5
:104D63000000000000FFFFFFFF0F0F0F0F0F0F0FDB
:104D73000F387C446C386C44007E7F01094F7630D9
:104D8300007F7F010103030000027E7E027E7E021C
:104D93000063775D4963630000387C447C3C040412
:104DA3000080FE7E20203E1E000406027E7C06025A
:104DB3000099BDE7E7BD9900001C3E6B496B3E1CA3
:104DC300004C7E7301737E4C0030784A4F7D39006E
:104DD30000183C243C3C243C1898FC643C3E273D92
:104DE300181C3E6B49490000007E7F01017F7E0055
:104DF300002A2A2A2A2A2A000044445F5F444400E6
:104E03000040515B4E4440000040444E5B51400023
:104E130000000000FEFF01070660E080FF7F000046
:104E23000008086B6B08080000243612362436127B
:104E33000000060F090F060000000000181800000C
:104E4300000000001010000000103070C0FFFF01D0
:104E530001001F1F011F1E000000191D1712000073
:104E63000000003C3C3C3C0000000000000000004F
:104E730000D0EEB5E7B3D8D1B9CFB5CAFDA3BAB761
:104E8300F8C9E4C1BFCEC2B6C8BCC6CBE3B7E7BB63
:104E9300FAC1F7B7C5B3E4B7F1CAC7B5B1C7B0C86C
:104EA300D5C6DACAB1BCE4E4AFC0C0C0FACAB7BE63
:104EB300DDB4F2D3A1CEB4D7BCB1B8BAC3B0B4C8D1
:104EC300B7B6A8BCFCBCCCD0F8C9E8D6C3CDCBB32D
:104ED300F6D5FDD4DAC7EBD1A1D4F1C4EAD4C2B775
:104EE300DDCEDED6B8B6CEC3BBD3D0C3BFCCECC603
:104EF300F0CABCBDE1CAF8A1E6D7EEB4F3D6B5D08B
:104F0300A1B7D6CDB3B2CEC6E4CBFCD7A2D2E2D002
:104F1300E8D2AAD7A8D2B5C8CBD4B1B5F7D5FBA3ED
:104F2300A1BCD3BCF5BBD6B8B4C8B1CAA1B1A3B4B4
:104F3300E6B8F1CABDBBAFB4A2C7F8A3BFC8CFB52B
:104F4300C8BAF2D0CDD6C7C4DCB2C9BCAFC6F7BDB0
:104F5300F8D0D0B4FDCDEAB3C9C8CEB4EDCEF3D604
:104F6300B4B3F5C3EBBDF1BBB7BEB30212125272B9
:104F7300D7D25A52379212121202000000FAABAB88
:104F8300AAAAFAAAAAAAABFA04000000F090909089
:104F930090FF90909090F810000000000F0404041C
:104FA300047F848484848F80F000001022640C408A
:104FB30040FC2020FF1010F81000000404FE010044
:104FC300003F40405F4448474070000000FE0282BB
:104FD300828282FE828282C382000040300F404080
:104FE3004040407F4042444C604000000222223255
:104FF300AAA66222128901010000000040221703C1
:1050030042827E020202136600000010925430FFB7
:10501300509432D8171010F018100002824E332229
:10502300528E402314081661C040000000000000A7
:105033000000000000000000000000000036360001
:10504300000000000000000000000088E898CF88FE
:105053008802027A4A4A4A7A030200081808FF04BF
:105063000400FF49497F4949FF00000000FCA6A551
:10507300A4FC0020202020FF202000444427144CBF
:10508300847F00010640807F000000202020BEAA0C
:10509300AAAAAAAAAAAABF22202000008080AFAA97
:1050A300AAAAFFAAAAAAAF808000001022640C80DB
:1050B30000FE9292929292FF0200000404FE0140CD
:1050C3007E42427E427E42427E40000000FC242417
:1050D30024FC252624FC242426040040209F8084CD
:1050E3004C55252555550C84808000404042CC000A
:1050F30040404040FF4040406040000000007F20AF
:1051030010080000FF000000000000080403FAAECE
:10511300AAAAACABAAAEFA020200000808884B3E6A
:105123000A0A0A0A0AFE0B080808000000FE020A1F
:10513300126282621A02FF0200000080403F2010C8
:105143000806010618003F4080E0001010D0FF90D1
:105153001000FC040404FE04000000040300FF80AC
:1051630041201F0000003F404070001022640CC02B
:10517300044464554E445464C604000004FC038094
:10518300403F0000FF00007F80E0001010F1969088
:10519300D09010D8171010F018100040300F204096
:1051A3003F8040201B041B60C0400008080888C8DB
:1051B300A8998E88A8C888080C0800008080403011
:1051C3000F0000003F4041404070000202828242D3
:1051D3002212FA0622224242838200010100FE4289
:1051E300424243424242FE00000100000000007FB1
:1051F30049494949497F0000800000018141211D3F
:1052030021417F89898D8981818100004042444CFD
:1052130040407F40404844E640000000404444444E
:1052230044444444444444FF0000000808E8292A55
:105233002EE80808CC0A0BE80C08000000FF094917
:10524300897F00000F40807F000000000000FE8285
:10525300828282828282FF020000000000007F209F
:105263002020202020207F000000000008FFA8A8A5
:10527300A8FF0800FE222222FF0200844437040410
:1052830014A744241F0242827F000000FC8484840C
:10529300FE141090101010FF101000003F1010109B
:1052A3003F0000002340807F00000000F801020659
:1052B300E0222222F2220202FF020000FF0000008D
:1052C3003F1111113F0040807F00001062048C08E1
:1052D30028C90EC83808FC00FF00000404FE0120A2
:1052E300100C030C30004F807F0000003E00C07F95
:1052F30040504847444CD4040604008080805F40FB
:1053030020100F7880809F8080E0000000FE4242E2
:105313004242FE42424242E342000040300F80409C
:10532300201807004080807F0000000000F8888874
:105333008888FF88888888FC080000808041402294
:105343001408171020204041C04000101010FF9097
:1053530050FE929292F29292DF82000242817F404B
:105363003807FC4444474444FC0000101010FF90ED
:105373005008080808F808080C08000242817F005A
:1053830000000040807F000000000000FE42424217
:10539300614100FE02020202FF0200001F1010081A
:1053A300080800FF00081008070000808888888824
:1053B3008888FF888888888CC880000020100804AB
:1053C3000201FF0102040810301000000204EC4047
:1053D30020F84F4849FE48484C080002027F00006D
:1053E30000FF2222223F2222322000000090884424
:1053F3004B3212324A478280000000010100FF490C
:1054030049497F494949FF000101001010F01F106D
:10541300F080828282E2928AC680004022150814BC
:1054230063000040807F0000000000101010FF9018
:1054330020988888E98A8888A898000242817F009A
:105443000080844B30102C43C000000484E49C840F
:10545300C624F02827F42C24E0000001007F20203C
:10546300BF403F09097F0989FF0000100C444444F1
:105473004445C644446444140E04008040201E2066
:1054830040407F44444644404040001028E72424E1
:10549300C2B28E105454FF547C100001017F21517D
:1054A300241827488989FF898988002030AC633014
:1054B30000FE8890A0FFA09098000022672212129D
:1054C300007F4844427F42446C40002030AC63304C
:1054D300002464A43FE424A4600000226322121287
:1054E300148546241C172444C60400404042CC00C3
:1054F30040A09F8181819FA02020000000007FA009
:105503009040432C10282641C04000001017D55569
:1055130057557D555755D5171000004040407F55CE
:105523005555555555557F40604000404244CC0089
:1055330000FF4949494949FF4000000040201F201E
:10554300409F8885818285889880000000FC4040C8
:105553004040FF40404040FC00000000FE4040400F
:1055630040407F4040404040FE0000000202C20233
:105573000202FE828282C2830200004040407F40DA
:1055830040407F404040404060400008080808C851
:10559300380F0808E80808880C0800080402FF0010
:1055A300404141417F4141416140002022EC0040A4
:1055B300445454547F54545644400000007F2010F8
:1055C30000FF15151555957F000000404244CC009F
:1055D300605E48C87FC8484C6840000040201F20D8
:1055E30060908C83809FA0A0A0B800101010FF9043
:1055F3005082462A922A46828080000242817F009E
:1056030009080909FF09090C090000004020D847CF
:105613004444FC4444446446040000040404070472
:105623000404FF040404040406040000000000FE54
:10563300222222222222FF02000000008040300F9B
:105643000202020242827F00000000804020F887AD
:1056530040B08E8080879820602000000000FF000B
:1056630040300F4080403F00000000004042424273
:1056730042FE42C242434260400000008040201884
:105683000601003F40404040407000101010FF9062
:1056930050003F48484844464470000242817F001E
:1056A3000000FF4949494949FF00000000FE22224A
:1056B3002121807E0202027F4240001010FF09096F
:1056C3008989824E5222524F828000102162060045
:1056D30040A09E8282829FA22020000404FE0180BB
:1056E30080414628102846C140400004040484E455
:1056F3003C2724242424F42406040004020100FF8C
:105703000909090949897F00000000001008E724FE
:105713002464A4242424F4260400000202322F2249
:105723002226AAA2A2623F22030200404242424230
:105733004242FE4242424243624000808040201087
:105743000C0300030C102040C0400040484848FFB1
:10575300484800C4444444FE04000040301F207FF6
:105763004242404F505050505C40001010F01F1008
:10577300F04060584740405060C000402215081672
:105783006100FE4242424242FE0000003028A46310
:1057930010084848487F48484C08000022632212FA
:1057A3001200FE4242424242FE00000404E424246A
:1057B3002424FF24242424F4260400404027221216
:1057C3000A06FF060A121227602000060909E618D6
:1057D30004020202020202041E0000000000071875
:1057E30020404040404040201800004040C05F55EA
:1057F30055D5555555555F4040400020203F151560
:1058030015FF814729112D43C0400020202020206F
:1058130020A07FA020202020302000004040201026
:105823000C03000106081020602000804020F807C8
:1058330004E4A4A4BFA4A4E4060400000000FF4001
:10584300407F4A4A4A4A4A7F40400000000080C0E5
:105853000000FF000040800000000004020100007F
:1058630040807F0000000003060000008040A098F5
:10587300868080838C9020C080800001008040302F
:105883000F004080403F00000100002030AC633037
:1058930088C8A8998E88A8CC880000226722129213
:1058A30040300F00003F404041700020202028A8D6
:1058B3006C3B28A86AAC2820302000048482814AEB
:1058C3004A4925241210090206020000000404FFBD
:1058D3002424242424FF0404000000080888486FBB
:1058E30009090909092F48C80C0800100C0404E42D
:1058F3000405060484C404140E0400000000003FE1
:1059030042424141404040780000001022640C8034
:1059130008080809FE0808880C08000404FE014072
:10592300414141417F414141614000101012D25633
:105933005A5253525A56D2121810004030007785EB
:10594300858D95B58585E700106000908C85A5ADA4
:105953009585FF8595ADA585948C000000FC040416
:105963007E05047C0444847E0400000002F29292CB
:10597300FE929292FE9292F3020000020282828AC7
:1059830056532222524E82020202004040484848A7
:10599300C8784F4848484C48604000000000000267
:1059A30023224262920A0702000000001060800076
:1059B300FF000000FF0000C03000004040404740AF
:1059C3007F4040407F4443406040000000000000AF
:1059D30000807F8000000000000000008040201055
:1059E3000C0300030C102040C040000000809E9276
:1059F3009292929292929FC280000000809F4040B8
:105A030020100F002020405F8000002021E60000CE
:105A1300FE829292FE929282FF020000003F904823
:105A23003F001E1212125E807F0000023AAA6AFF34
:105A3300AA2A3A121FA444BC040400404142427BF8
:105A430042437E4A4B4A4A42614100000000FEFE47
:105A530000000000000000000000000000003737D5
:105A63000000000000000000000000101010FF10F4
:105A730010F81000F8080808FC0800402018072058
:105A8300403F00007F2020207F00000002048C4064
:105A9300F80848484808FF0A0C880002023F804083
:105AA3003F003F915F201F6886E100807000FF1078
:105AB3002808E81F08E808088C0800000000FF20F9
:105AC30018878041320F3241C1400020100C03FA85
:105AD300AAAAAAAAAAAAFA0302000000209088464A
:105AE300472A32122A464280808000A0908FF8888D
:105AF3008C881010FF1010F8100000007E203F204B
:105B0300FE40221A071A2243C242000000201886D0
:105B130080405F202012048818000002020101FF68
:105B230055555555555555FF010000008060F80740
:105B3300007E2222E222223F820000010000FF4178
:105B430021110905FF050931612100040404C4344E
:105B53000C27242424A46424060400040201FF0265
:105B6300020242827F0202020302001010D0FF50A1
:105B7300B01817A444A4140C000000040300FF0889
:105B830004FE4544444445FE0602001010909090E4
:105B9300909010FF10121410181000002060201FA6
:105BA3001010100106182040807000804020F80774
:105BB300000000FF40201018000000000000FF005C
:105BC3000402013F404040404070004020F827203D
:105BD300E20C4048FF4868584C40000000FF0000BA
:105BE3003F2412FF494949FF0000000000FE020A5A
:105BF300122242824222121B02000000007F404810
:105C0300444241404142464C604000000000383469
:105C13000282C27C38000000000000000000000087
:105C23000037370000000000000000404244CC0071
:105C3300000000C03FC000000000000000003F90D3
:105C430048300E0100010E30C04000000824272C0C
:105C53002424F824272C2426040000010505050D1F
:105C6300350545857F0505050501002010FC03F872
:105C73001092F29292929F929010000000FF001FE8
:105C8300854424140F142444C64400202222FE22F7
:105C930022FE222200FC0000FF0000404C4A49483B
:105CA300484B7E4848484A4C6B4000202827E43C38
:105CB300A4262420FC848484FE0400040201FC54F2
:105CC300545754545554FE0401000010D8545350F3
:105CD300DC30007F90888486E0000000FF1252923F
:105CE3007F00007E9088848680E0000004041424F2
:105CF3000404D4240222121B820000012121110971
:105D03000503FF0305090911311100201008FC5791
:105D13005454FD56545456040000000444442715BB
:105D23000D05FF050D15256524040080809F9191C5
:105D3300919FE09F91B1D19F8080000808FC8C8ADD
:105D43008AF900F98A8A8CFC0808004042CC0008D2
:105D530008FF080808FF080888000040201F2041AA
:105D6300514F4141417F4141414100001088C423CB
:105D7300404242424242C243624000020100FF00ED
:105D83000000000040807F00000000001088C43342
:105D9300404444447F44C446644000020100FF0081
:105DA30002020A3282827F02020200100C042424BF
:105DB30024252624342404940E04000081814131D7
:105DC3000F01017F81818181F100000000F8888843
:105DD3008888087F880A0C08C8000040201F000834
:105DE300100F4020131C244380F000804020F887CC
:105DF30080848484FC848282C08000000000FF00D1
:105E0300202020203F202030200000804070CF48F9
:105E13000840487F48487F484840000002027F22EC
:105E23001200FF49494949FF0000004042C40C00E9
:105E3300809E9292929292DF82000000007F201453
:105E43008444241C071C2444C64400101010FF90F3
:105E5300500010FF1010F8100000000242817F0074
:105E630080601D030C007F8080F000101091D630FD
:105E730098000808F8080808FC0800020100FF035E
:105E830084402018074080403F0000202424A4FEC3
:105E9300A322807000FF001020600010080601FF9D
:105EA30000818040201708040300008080402010F8
:105EB300082443C408102040C04000000000020230
:105EC30002028242221A0600000000424242FE42BF
:105ED30006048444E41C84040604001030101F08E4
:105EE3000A010000FF0000010306002020FF20003C
:105EF30024A4ACB5A6B4ACA624200010301F088897
:105F0300804F3A0A0A7A8A8F80E0000540430540B1
:105F13005405406105407005407D05408CD2007AF0
:105F23004046B6D33F0000803F7502FA3E34803BC3
:105F3300402EFFF93F05409B05409E03B5B1C7B016
:105F4300C8D5C6DA3A0A0A2025622D25622D2564B2
:105F5300000000000000000000000000000000003E
:105F630000000002880802880702880902B5B1C749
:105F7300B0CAB1BCE43A0A0A2025623A25623A253E
:105F830062000000000000000000000000000000AC
:105F93000000000002880402880202880000E4AFC7
:105FA300C0C0C0FACAB7CAFDBEDD000000000000D1
:105FB30000000000000000000000000000000000DE
:105FC300000000000000000000000000000000B41A
:105FD300F2D3A1C0FACAB7CAFDBEDD0000000000BB
:105FE30000000000000000000000000000000000AE
:105FF3000000000000000000000000000000000599
:0C600300423B0542480542554180250AF9
:10000600908000EEF0A3EFF0908000E0FEA3E0FF0A
:1000160074082FF582EE3490F583E0FFEFC39480E9
:1000260050E622908002E4F0908002E0FFEFC39455
:100036000340030200ED908003E4F0908003E0FFAC
:10004600EFC3940840030200C9908002E0FF7E00DF
:10005600120006908003E0FFEF44B8FF908002E0B4
:10006600FEE42EF582E43490F583EFF0908002E012
:10007600FF7E00120006908002E0FFE42FF582E486
:100086003490F5837440F0908004E4F0908004E0AE
:10009600FFEFC394405023908002E0FF7E001200E1
:1000A60006908002E0FF74042FF582E43490F58315
:1000B600E4F0908004E004F080D2908003E004F045
:1000C600020041908002E0FF7E001200069080024E
:1000D600E0FFE42FF582E43490F58374C0F090805D
:1000E60002E004F002002E908067E4F0908066E45F
:1000F600F022908068EFF0908068E0FFEFB40A226B
:10010600908066E0FFEFC3940740047F008008906C
:100116008066E0FFEF04FF908066EFF0908067E472
:10012600F022908068E0FFEFD394A040030204E041
:10013600D20F908067E0FFEFC39480400890806AFA
:100146007401F08018908067E0FFEFC39440400888
:1001560090806A7402F0800590806AE4F09080686E
:10016600E0FF7E08EF8EF0A4FFAEF074742FF974F2
:10017600463EFA7B0590806BEBF0A3EAF0A3E9F02C
:1001860090806AE0FF7E00120006300B03020278C0
:10019600908066E0FFEF5407FFEF44B8FF90806A57
:1001A600E0FEE42EF582E43490F583EFF090806A69
:1001B600E0FF7E00120006908067E0FFEF543FFFED
:1001C600EF4440FF90806AE0FEE42EF582E434902E
:1001D600F583EFF0908069E4F0908069E0FFEFC36B
:1001E6009408503C90806AE0FF7E001200069080E2
:1001F6006BE0FBA3E0FAA3E0F9908069E0FF8F8251
:100206007583001264BFFF90806AE0FE74042EF5C9
:1002160082E43490F583EFF0908069E004F080B9D1
:1002260090806AE0FF7E0012000690806AE0FFE49C
:100236002FF582E43490F58374C0F0908067E02453
:1002460008F0908067E0FFEFC394C0500302093CBA
:10025600908067E4F0908066E0FFEFC39407400467
:100266007F008008908066E0FFEF04FF908066EFD5
:10027600F022908066E0FFEF04FFEF5407FFEF44A3
:10028600B8FF90806AE0FEE42EF582E43490F583B0
:10029600EFF090806AE0FF7E00120006908067E033
:1002A600FFEF543FFFEF4440FF90806AE0FEE42EEC
:1002B600F582E43490F583EFF0908069E4F0908065
:1002C60069E0FFEFC3940840030203FB90806AE0F5
:1002D600FF7E00120006908069E0FF746E2FF582A3
:1002E600E43480F583E4F090806BE0FBA3E475F0E2
:1002F600011265B7A9F0FA1264A4FF908078EFF0B6
:10030600908077E4F0908077E0FFEFC39404505537
:10031600908069E0FF746E2FF582E43480F583C027
:1003260083C082E0FFEF25E025E0FFD082D083EF97
:10033600F0908078E0FFEFC394804013908069E0EE
:10034600FF746E2FF582E43480F583E02403F09089
:100356008078E0FFEF25E0FF908078EFF0908077DF
:10036600E004F080A0908069E0FF746E2FF582E4CF
:100376003480F583E0FF90806AE0FE74042EF582F7
:10038600E43490F583EFF0908077E4F0908077E0A6
:10039600FFEFC394045055908069E0FF746E2FF50B
:1003A60082E43480F583C083C082E0FFEF25E02538
:1003B600E0FFD082D083EFF0908078E0FFEFC39427
:1003C600804013908069E0FF746E2FF582E43480DC
:1003D600F583E02403F0908078E0FFEF25E0FF90BE
:1003E6008078EFF0908077E004F080A0908069E05C
:1003F60004F00202C490806AE0FF7E0012000690BC
:100406008066E0FFEF5407FFEF44B8FF90806AE094
:10041600FEE42EF582E43490F583EFF090806AE0F6
:10042600FF7E00120006908067E0FFEF543FFFEF6B
:100436004440FF90806AE0FEE42EF582E43490F5B5
:1004460083EFF0908069E4F0908069E0FFEFC39459
:1004560008503490806AE0FF7E00120006908069A2
:10046600E0FF746E2FF582E43480F583E0FF908020
:100476006AE0FE74042EF582E43490F583EFF09082
:100486008069E004F080C190806AE0FF7E0012007F
:100496000690806AE0FFE42FF582E43490F58374D9
:1004A600C0F0908067E02408F0908067E0FFEFC31B
:1004B60094C0500302093C908067E4F0908066E0A7
:1004C600FFEFC3940740047F008009908066E0FF39
:1004D600EF2402FF908066EFF022300F0D908068C7
:1004E600E0FF908005EFF0C20F22D20F908068E007
:1004F600FF908006EFF0908069E4F0908069E0FF5D
:10050600EFC394FA503C908069E0FFEF25E0247435
:10051600F582E4344EF583E493FE740193FF9080F4
:1005260005E0FCA3E0FDEFB50510EEB5040C9080E8
:1005360069E0FF908005EFF08008908069E004F0A4
:1005460080B99080767410F0908067E0FFEFC394D6
:1005560080403D90806A7401F0908067E0FFEFD3A1
:1005660094B050030205E2908067E4F0908066E064
:10057600FFEFC3940740047F008009908066E0FF88
:10058600EF2402FF908066EFF090806AE4F0804CE2
:10059600908067E0FFEFC39440402290806A740227
:1005A600F0908067E0FFEFD394704030908067E072
:1005B600FFC374809FFF908076EFF0801F90806A63
:1005C600E4F0908067E0FFEFD39430400F908067AF
:1005D600E0FFC374409FFF908076EFF090806AE062
:1005E600FF7E00120006908066E0FFEF5407FFEFE3
:1005F60044B8FF90806AE0FEE42EF582E43490F57C
:1006060083EFF090806AE0FF7E001200069080671C
:10061600E0FFEF543FFFEF4440FF90806AE0FEE4C6
:100626002EF582E43490F583EFF0908069E4F09043
:100636008076E0FF908069E0FEEEC39F504990808F
:100646006AE0FF7E00120006908069E0FF90800558
:10065600E0FE75F020EEA4246EF582E5F0344FF549
:1006660083E5822FF582E43583F583E493FF90805A
:100676006AE0FE74042EF582E43490F583EFF09080
:100686008069E004F080A890806AE0FF7E00120096
:1006960006908066E0FFEF04FFEF5407FFEF44B8D3
:1006A600FF90806AE0FEE42EF582E43490F583EF55
:1006B600F090806AE0FF7E00120006908067E0FFFF
:1006C600EF543FFFEF4440FF90806AE0FEE42EF5D2
:1006D60082E43490F583EFF09080697410F0908096
:1006E60076E0FF7E00EF2410FFEE3400FE90806976
:1006F600E0FD7C00C3ED9FEE6480F8EC64809850CA
:100706004990806AE0FF7E00120006908069E0FF53
:10071600908005E0FE75F020EEA4246EF582E5F0EB
:10072600344FF583E5822FF582E43583F583E49330
:10073600FF90806AE0FE74042EF582E43490F5831F
:10074600EFF0908069E004F08094908076E0FFEF0F
:10075600641070030208ED908067E0FF7E00EF24CE
:1007660010FFEE3400FEC3EF9480EE648094804068
:100776000890806A7401F08027908067E0FF7E0011
:10078600EF2410FFEE3400FEC3EF9440EE64809435
:1007960080400890806A7402F0800590806AE4F0D8
:1007A60090806AE0FF7E00120006908066E0FFEF10
:1007B6005407FFEF44B8FF90806AE0FEE42EF5820E
:1007C600E43490F583EFF090806AE0FF7E0012003B
:1007D6000690806AE0FFE42FF582E43490F5837496
:1007E60040F0908076E0FF908069EFF0908069E0BD
:1007F600FFEFC39410504990806AE0FF7E0012001C
:1008060006908069E0FF908005E0FE75F020EEA47A
:10081600246EF582E5F0344FF583E5822FF582E408
:100826003583F583E493FF90806AE0FE74042EF529
:1008360082E43490F583EFF0908069E004F080ACB8
:1008460090806AE0FF7E00120006908066E0FFEF6F
:1008560004FFEF5407FFEF44B8FF90806AE0FEE420
:100866002EF582E43490F583EFF090806AE0FF7E07
:100876000012000690806AE0FFE42FF582E43490CF
:10088600F5837440F0908076E0FFEF2410FF9080AF
:1008960069EFF0908069E0FFEFC3942050499080A3
:1008A6006AE0FF7E00120006908069E0FF908005F6
:1008B600E0FE75F020EEA4246EF582E5F0344FF5E7
:1008C60083E5822FF582E43583F583E493FF9080F8
:1008D6006AE0FE74042EF582E43490F583EFF0901E
:1008E6008069E004F080AC90806AE0FF7E00120030
:1008F6000690806AE0FFE42FF582E43490F5837475
:10090600C0F0908067E02410F0908067E0FFEFC3AE
:1009160094C04022908067E4F0908066E0FFEFC3C9
:10092600940740047F008009908066E0FFEF240270
:10093600FF908066EFF022908079EFF090807AED5C
:10094600F0908079E0FF908066EFF090807AE0FF8B
:10095600908067EFF02290807BE4F090807BE0FF50
:10096600EFC39403503E90807BE0FF7E00120006AA
:1009760090807BE0FFE42FF582E43490F583743FAA
:10098600F090807BE0FF7E0012000690807BE0FF07
:10099600E42FF582E43490F58374C0F090807BE018
:1009A60004F080B7120029D2C42212002990807C5C
:1009B600E4F090807CE0FFEFC39403503E90807C8F
:1009C600E0FF7E0012000690807CE0FFE42FF582B7
:1009D600E43490F583743EF090807CE0FF7E001254
:1009E600000690807CE0FFE42FF582E43490F583E6
:1009F60074C0F090807CE004F080B7C2C42290807E
:100A06007DEBF0A3EAF0A3E9F07B027A807980908F
:100A160080B5EBF0A3EAF0A3E9F09080ACE4F090A7
:100A2600807DE0FBA3E475F0011265B7A9F0FA1228
:100A360064A4FF9080A8EFF0FFEF64256015908016
:100A4600A8E0FFEF70032280D69080A8E0FF120E88
:100A5600E580CC90807DE0FBA3E475F0011265B7DC
:100A6600A9F0FA1264A4FF9080A8EFF0FFEF1267D6
:100A7600950B13620A8D630C0D640B3D660C0D6FAE
:100A86000AB37300000AA89080B5E0FBA3E475F0F2
:100A9600021265B7A9F0FA1265CDFFAEF09080A8F4
:100AA600EFF09080A8E0FF120EE5020A259080B5CF
:100AB600E0FBA3E475F0031265B7A9F0FA1266DE4F
:100AC6009080A9EBF0A3EAF0A3E9F09080A9E0FBFF
:100AD600A3E475F0011265B7A9F0FA1264A4FF90B9
:100AE60080A8EFF0FFEF7003020A25908025E0FF53
:100AF6009080ACE0FEEEB507077F20120EE580CBB6
:100B06009080A8E0FF120EE580C1020A259080AD14
:100B1600E4F0A37464F09080B5E0FBA3E475F00103
:100B26001265B7A9F0FA1264A4FF7E009080B3EEB6
:100B3600F0A3EFF0020C359080B5E0FBA3E475F06E
:100B4600041265B7A9F0FA1266571267327F467E1D
:100B56001C7D407C001261391262699080B1EEF012
:100B6600A3EFF09080AFE4F0A3740AF09080B1E0B8
:100B7600FEA3E0FF7C277D10126516EF2430FF12DE
:100B86000EE57F2E120EE59080B1E0FEA3E0FF7C1D
:100B9600277D101265169080B1ECF0A3EDF09080E1
:100BA600AD7403F0A374E8F09080ADE0FCA3E0FD23
:100BB6009080B1E0FEA3E0FF126516EF2430FF122D
:100BC6000EE59080B1E0FEA3E0FF9080ADE0FCA3CF
:100BD600E0FD1265169080B1ECF0A3EDF09080ADCB
:100BE600E0FEA3E0FF9080AFE0FCA3E0FD126516F7
:100BF6009080ADEEF0A3EFF09080ADE0FEA3E0FFB5
:100C0600EF4E70A4020A259080AD7427F0A37410ED
:100C1600F09080B5E0FBA3E475F0021265B7A9F089
:100C2600FA1265CDFFAEF09080B3EEF0A3EFF09030
:100C360080AFE4F0A3740AF09080B3E0FEA3E0FF77
:100C4600C3EE64809480501C7F2D120EE59080B315
:100C5600E0FEA3E0FFC3E49FFFE49EFE9080B3EEB8
:100C6600F0A3EFF09080ADE0FEA3E0FFD3EF940198
:100C7600EE940040309080B3E0FEA3E0FF9080AD9C
:100C8600E0FCA3E0FDD3ED9FEC9E40199080ADE023
:100C9600FEA3E0FF7C007D0A1265169080ADEEF0A3
:100CA600A3EFF080BF9080A8E0FFEFB46F2890809C
:100CB600ADE0FEA3E0FFEF64014E701A908025E0E0
:100CC600FF9080ACE0FEEEB507077F20120EE580B0
:100CD600057F30120EE59080A8E0FFEFB46F2890F4
:100CE60080ADE0FEA3E0FFEF64014E701A90802510
:100CF600E0FF9080ACE0FEEEB507077F20120EE520
:100D060080057F2E120EE5908025E0FF9080ACE0F6
:100D1600FEEEB507077F20120EE5801A9080ADE043
:100D2600FCA3E0FD9080B3E0FEA3E0FF126516EFA2
:100D36002430FF120EE59080B3E0FEA3E0FF908022
:100D4600ADE0FCA3E0FD12656B9080B3ECF0A3ED83
:100D5600F09080ADE0FEA3E0FF9080AFE0FCA3E062
:100D6600FD1265169080ADEEF0A3EFF09080ADE039
:100D7600FEA3E0FFEF4E6003020CDC9080ACE004C3
:100D8600F0020A25229080B8EEF0A3EFF09080B82A
:100D9600E0FEA3E0FFD3EF9400EE9400403F908086
:100DA600BAE4F0A3E4F09080BAE0FEA3E0FFC3EF5C
:100DB600940AEE940050109080BBE004F070069008
:100DC60080BAE004F080DF43871075FF009080B999
:100DD600E024FFF09080B8E034FFF080B022438733
:100DE6001075FF00E590540FFFEFB40F047F00224B
:100DF600227F012243871075FF00E590540FFF9074
:100E060080BCEFF09080BCE0FFEFB40F037F0F22B1
:100E16007F0A7E00120D8BE590540FFF9080BCE098
:100E2600FEEFB5060E908026E4F0A3E4F09080BCB9
:100E3600E0FF227F0F22120DFAEF640F60119080FF
:100E460026E0FEA3E0FFC3EF9458EE940240E712BB
:100E56000DFA9080BDEFF0FFEFB40F11908026E001
:100E6600FEA3E0FFC3EF9458EE940240E29080BDEB
:100E7600E0FF229080BEEFF09080BEE0FF8FC5437A
:100E8600C508E5C530E4FBAFC67E00EF7F00FEADCA
:100E9600C57C00EF2DFDEE3CFCE412623112673298
:100EA6007F427E807D007C001261B11267329080A5
:100EB600BEE0FF75F004EFA4240BF582E5F03400E4
:100EC600F5831266791261391262699080BFEEF07D
:100ED600A3EFF053C5EF9080BFE0FEA3E0FF2290A2
:100EE60080C1EFF043871075FF003012099080C172
:100EF600E0FF1200F822201003020F6F30C35C904F
:100F060080C2E4F09080C2E0FFEFC394C850123074
:100F1600C3497F0A7E00120D8B9080C2E004F080E8
:100F2600E3120029D2127B057A4079A1120A041233
:100F36000E3C9080C2EFF0FFEF640E60099080C215
:100F4600E0FFEFB40F05C210C212221200297B0582
:100F56007A4079D5120A04C21280A19080C1E0FFBE
:0A0F660090B000EFF0C2C0D2C0222C
:03000300020F7079
:100F7000C0E0C0F0C083C082C0D0C000C001C002C9
:100F8000C003C004C005C006C00790880CE0FF90F5
:100F9000880CEFF0B294B295908027E004F07006D0
:100FA000908026E004F0908800E0FFEF60030218D4
:100FB0002C9080C3E4F09080C3E0FFEFC394064020
:100FC000030210EB9080C3E0FFEF25E025E0240D45
:100FD000F582E43480F583C083C08212667912679B
:100FE000329080C3E0FF120E799080C3E0FDED25C2
:100FF000E02459F582E43480F583EEF0A3EFF0E4C9
:10100000FCFD1265FAD082D0831266959080C3E011
:10101000FFEF25E02428F582E43480F583E475F0C1
:10102000011265A19080C3E0FFEF25E02459F5820D
:10103000E43480F583E0FEA3E0FF9080C3E0FDEDA3
:1010400025E0244DF582E43480F583E0FCA3E0FD47
:10105000C3ED9FEC9E502C9080C3E0FFEF25E02471
:1010600059F582E43480F583E0FEA3E0FF9080C36D
:10107000E0FDED25E0244DF582E43480F583EEF0CB
:10108000A3EFF09080C3E0FFEF25E02459F582E460
:101090003480F583E0FEA3E0FF9080C3E0FDED2502
:1010A000E02441F582E43480F583E0FCA3E0FDD345
:1010B000ED9FEC9E402C9080C3E0FFEF25E024598B
:1010C000F582E43480F583E0FEA3E0FF9080C3E086
:1010D000FDED25E02441F582E43480F583EEF0A3B4
:1010E000EFF09080C3E004F0020FB690804DE0FE78
:1010F000A3E0FF900001E0FD75F00EEDA42428F5BB
:1011000082E5F03401F583ED2583F583EEF0A3EF5E
:10111000F0908041E0FEA3E0FF900001E0FD75F05B
:101120000EEDA4242AF582E5F03401F583ED258344
:10113000F583EEF0A3EFF090804FE0FEA3E0FF9088
:101140000001E0FD75F00EEDA4242CF582E5F034ED
:1011500001F583ED2583F583EEF0A3EFF090804356
:10116000E0FEA3E0FF900001E0FD75F00EEDA42489
:101170002EF582E5F03401F583ED2583F583EEF05D
:10118000A3EFF0908057E0FEA3E0FF900001E0FDA8
:1011900075F00EEDA42430F582E5F03401F583ED11
:1011A0002583F583EEF0A3EFF090804BE0FEA3E003
:1011B000FF900001E0FD75F00EEDA42432F582E50C
:1011C000F03401F583ED2583F583EEF0A3EFF09085
:1011D0008055E0FEA3E0FF900001E0FD75F00EED0C
:1011E000A42434F582E5F03401F583ED2583F583FD
:1011F000EEF0A3EFF0908049E0FEA3E0FF90000145
:10120000E0FD75F00EEDA42436F582E5F03401F52D
:1012100083ED2583F583EEF0A3EFF0908051E0FE9F
:10122000A3E0FF900001E0FD75F00EEDA424F4F5BD
:1012300082E5F03400F583ED2583F583EEF0A3EF2E
:10124000F0908045E0FEA3E0FF900001E0FD75F026
:101250000EEDA424F6F582E5F03400F583ED258348
:10126000F583EEF0A3EFF0908802E0FFEF60030259
:10127000182C90800D126679126732908028E0FE5B
:10128000A3E0FFE4FCFD1268FD126763908034EE7A
:10129000F0A3EFF090801112667912673290802AE5
:1012A000E0FEA3E0FFE4FCFD1268FD12676390809E
:1012B00036EEF0A3EFF09080151266791267329047
:1012C000802CE0FEA3E0FFE4FCFD1268FD126763E2
:1012D000908038EEF0A3EFF090801D1266791267CF
:1012E00032908030E0FEA3E0FFE4FCFD1268FD12C6
:1012F000676390803CEEF0A3EFF090802112667956
:10130000126732908032E0FEA3E0FFE4FCFD126839
:10131000FD12676390803EEEF0A3EFF0908034E022
:10132000FEA3E0FF900001E0FD75F00EEDA4243473
:10133000F582E5F03400F583ED2583F583C083C0A5
:101340008290800CE0FDD082D08375F002ED1266B1
:10135000D2EEF0A3EFF0908036E0FEA3E0FF900025
:1013600001E0FD75F00EEDA42464F582E5F0340093
:10137000F583ED2583F583C083C08290800CE0FD6A
:10138000D082D08375F002ED1266D2EEF0A3EFF0BA
:1013900090803EE0FEA3E0FF900001E0FD75F00EBE
:1013A000EDA42494F582E5F03400F583ED2583F572
:1013B00083C083C08290800CE0FDD082D08375F022
:1013C00002ED1266D2EEF0A3EFF090803CE0FEA3B7
:1013D000E0FF900001E0FD75F00EEDA424C4F5825D
:1013E000E5F03400F583ED2583F583C083C082905A
:1013F000800CE0FDD082D08375F002ED1266D2EE53
:10140000F0A3EFF0908038E0FEA3E0FF900001E051
:10141000FD75F00EEDA424F8F582E5F03400F583B7
:10142000ED2583F583C083C08290800CE0FDD082DF
:10143000D08375F002ED1266D2EEF0A3EFF090804B
:101440003EE0FEA3E0FF900001E0FD75F00EEDA48C
:10145000243AF582E5F03401F583ED2583F583EE3A
:101460008FF01265A190803CE0FEA3E0FF900001A8
:10147000E0FD75F00EEDA4243CF582E5F03401F5B5
:1014800083ED2583F583EE8FF01265A1908036E021
:10149000FEA3E0FF900001E0FD75F00EEDA42438FE
:1014A000F582E5F03401F583ED2583F583EE8FF0C9
:1014B0001265A1908032E4F0A3E4F0908030E4F073
:1014C000A3E4F090802EE4F0A3E4F090802CE4F00C
:1014D000A3E4F090802AE4F0A3E4F0908028E4F004
:1014E000A3E4F09080211266A10000000090801D0E
:1014F0001266A1000000009080191266A100000091
:10150000009080151266A100000000908011126604
:10151000A10000000090800D1266A1000000009064
:101520008804E0FFEF600302182C900001E0FF75D3
:10153000F00EEFA42438F582E5F03401F583EF25B1
:1015400083F583E0FEA3E0FF900002E0FD75F00963
:10155000EDA42403F582E5F03470F583EE8FF012EC
:1015600065A1900001E0FF75F00EEFA4243AF5822A
:10157000E5F03401F583EF2583F583E0FEA3E0FF7A
:101580007C007D0A126516900002E0FD75F009ED01
:10159000A42405F582E5F03470F583EE8FF0126532
:1015A000A1900001E0FF75F00EEFA4243CF582E568
:1015B000F03401F583EF2583F583E0FEA3E0FF7CA3
:1015C000007D0A126516900002E0FD75F009EDA499
:1015D0002407F582E5F03470F583EE8FF01265A1F3
:1015E000900001E004F0908809E0FF7E00EF24BC49
:1015F000FFEE3407FE900001E0FD75F00EEDA4242F
:1016000030F582E5F03400F583ED2583F583EEF0C7
:10161000A3EFF0908808E0FF900001E0FE75F00E67
:10162000EEA42432F582E5F03400F583EE2583F54F
:1016300083EFF0908807E0FF900001E0FE75F00E68
:10164000EEA42433F582E5F03400F583EE2583F52E
:1016500083EFF09080C3E4F09080C3E0FFEFC39489
:101660000640030216F99080C3E0FFEF25E02459FD
:10167000F582E43480F583E4F0A3E4F09080C3E0E5
:10168000FFEF25E02428F582E43480F583E4F0A31D
:10169000E4F09080C3E0FFEF25E025E0240DF58223
:1016A000E43480F5831266A1000000009080C3E05E
:1016B000FFEF25E0244DF582E43480F583E4F0A3C8
:1016C000E4F09080C3E0FFEF25E02441F582E434AC
:1016D00080F583744EF0A37420F09080C3E0FFEF98
:1016E00025E02434F582E43480F583E4F0A3E4F0CB
:1016F0009080C3E004F0021658908807E0FFEF6482
:1017000001600302182C900002E0FF75F009EFA4BD
:101710002403F582E5F03470F583E0FEA3E0FF7C5E
:10172000037DE8126516900003E0FD75F008EDA456
:101730002402F582E5F0347EF583EE8FF01265A188
:10174000900002E0FF75F009EFA42405F582E5F0B2
:101750003470F583E0FEA3E0FF7C037DE81265169C
:10176000900003E0FD75F008EDA42404F582E5F097
:10177000347EF583EE8FF01265A1900002E0FF75D4
:10178000F009EFA42407F582E5F03470F583E0FE5C
:10179000A3E0FF7C037DE8126516900003E0FD7571
:1017A000F008EDA42406F582E5F0347EF583EE8F93
:1017B000F01265A1900002E004F0908809E0FF7E3D
:1017C00000900002E0FD75F009EDA42401F582E52A
:1017D000F03470F583EEF0A3EFF0908808E0FF900E
:1017E0000002E0FE75F009EEA42400F582E5F03475
:1017F00070F583EFF0908808E0FFEFB4012E9000C1
:1018000003E004F0908809E0FF7E00EF24BCFFEEC7
:101810003407FE900003E0FD75F008EDA42400F508
:1018200082E5F0347EF583EEF0A3EFF0908800E0DF
:10183000FF908040EFF0908802E0FF908065EFF02D
:10184000908804E0FF90800CEFF0908807E0FF9014
:101850008007EFF0908808E0FF908008EFF0908814
:1018600009E0FF7E00EF24BCFFEE3407FE90800A03
:10187000EEF0A3EFF0908806E0FF908009EFF0D241
:1018800014D007D006D005D004D003D002D001D0A8
:1018900000D0D0D082D083D0F0D0E0329080F5E478
:1018A000F0D20D9080ECE0FBA3E0FAA3E0F9126423
:1018B000A4FF9080F8EFF09080EFE0FBA3E0FAA3A4
:1018C000E0F91264A4FF9080F9EFF09080F2E0FB61
:1018D000A3E0FAA3E0F91264A4FF9080FAEFF0907D
:1018E00080C4E0FFC3EF6480948250229080E5E0E2
:1018F000FEA3E0FF9080FEEEF0A3EFF09080E7E023
:10190000FEA3E0FF908100EEF0A3EFF0802E908028
:10191000C4E0FFEFB402139080FEE4F0A37417F06C
:10192000908100E4F0A3E4F080129080FEE4F0A344
:10193000740CF0908100E4F0A37401F0120DE4EF58
:1019400070FA908025E4F09080FAE0FF7E00EF24AA
:10195000BCFFEE3407FE9080FCEEF0A3EFF0200D0C
:1019600003021AF9201103021A48908025E0FF9023
:1019700080FBEFF09080257403F01200299080C462
:10198000E0FFEF12679519960019AC0119EB021AE6
:101990000A0300001A377B027A8079C59080F8E04C
:1019A000FF908080EFF0120A04021A377B027A80DF
:1019B00079C5C003C002C0019080E9E0FBA3E0FA52
:1019C000A3E0F99080F8E0FF75F003EFA4F58285BD
:1019D000F083126700908080EBF0A3EAF0A3E9F0B7
:1019E000D001D002D003120A04804C7B027A8079A5
:1019F000C59080F8E0FF908080EFF09080F9E0FFE4
:101A0000908081EFF0120A04802D7B027A8079C5E4
:101A10009080F8E0FF908080EFF09080F9E0FF90F8
:101A20008081EFF09080FCE0FEA3E0FF908082EEEA
:101A3000F0A3EFF0120A04C20DC2119080FBE0FF88
:101A4000908025EFF0021AF91200299080C4E0FF7F
:101A5000EF1267951A64001A79011AA9021AC803CD
:101A600000001AF57B027A8079C59080F8E0FF903B
:101A70008080EFF0120A04807C7B027A8079C5C0F6
:101A800003C002C0019080E9E0FBA3E0FAA3E0F903
:101A90001266DE908080EBF0A3EAF0A3E9F0D001BB
:101AA000D002D003120A04804C7B027A8079C59060
:101AB00080F8E0FF908080EFF09080F9E0FF908068
:101AC00081EFF0120A04802D7B027A8079C5908024
:101AD000F8E0FF908080EFF09080F9E0FF90808147
:101AE000EFF09080FCE0FEA3E0FF908082EEF0A398
:101AF000EFF0120A04C20DD2117F327E00120D8B5C
:101B0000908026E0FEA3E0FFD3EF9458EE940240CD
:101B100003021DFF120DE4EF7003021DD6120DFA31
:101B2000EF1267951C4C071B7E0B1B3B0D1B340EE5
:101B300000001DC9908025740AF022908025740A47
:101B4000F09080F8E0FF9080ECE0FBA3E0FAA3E0E7
:101B5000F9EF1264EE9080F9E0FF9080EFE0FBA3D4
:101B6000E0FAA3E0F9EF1264EE9080FAE0FF9080D3
:101B7000F2E0FBA3E0FAA3E0F9EF1264EE22D21147
:101B8000D20D9080F7E0FFEF640B6059908025E064
:101B9000FF74F82FF582E43480F583E0FF7E009037
:101BA00080FEE0FCA3E0FDC3EF9DEE9C4018908119
:101BB00001E0FF908025E0FE74F82EF582E4348089
:101BC000F583EFF08012908025E0FF74F82FF58206
:101BD000E43480F583E004F09080F7740BF090809B
:101BE000F6E4F0805F9080F6E0FFEFD3940A404E79
:101BF000908025E0FF74F82FF582E43480F583E0CF
:101C0000FF7E009080FEE0FCA3E0FDC3EF9DEE9C14
:101C10004018908101E0FF908025E0FE74F82EF5D9
:101C200082E43480F583EFF0801A908025E0FF7421
:101C3000F82FF582E43480F583E004F0800690808C
:101C4000F6E004F09080F5E4F0021DE1D211D20D2F
:101C50009080C4E0FFEFB40236908025E0FFEFB43F
:101C60000110908025E4F09080FEE4F0A37417F05A
:101C7000800F9080257401F09080FEE4F0A3743B07
:101C8000F0120DE4EF7003021DE180F5021DE190FA
:101C900080C4E0FFEF64037067908025E0FFEFC32E
:101CA00094024007908025E4F08006908025E004AF
:101CB000F0908025E0FFEF70149080FEE4F0A374B4
:101CC0000CF0908100E4F0A37401F0802590802551
:101CD000E0FFEFB4010B9080FEE4F0A3741FF080EE
:101CE000119080FEE4F0A37463F0908100E4F0A30F
:101CF000E4F0120DE4EF7003021DE180F5021DE136
:101D00009080F7E0FFEF64076059908025E0FF7452
:101D1000F82FF582E43480F583E0FF7E00908100A7
:101D2000E0FCA3E0FDD3EF9DEE9C50189080FFE017
:101D3000FF908025E0FE74F82EF582E43480F58370
:101D4000EFF08012908025E0FF74F82FF582E434E4
:101D500080F583E014F09080F77407F09080F6E44B
:101D6000F0805F9080F6E0FFEFD3940A404E9080C1
:101D700025E0FF74F82FF582E43480F583E0FF7EE0
:101D800000908100E0FCA3E0FDD3EF9DEE9C501895
:101D90009080FFE0FF908025E0FE74F82EF582E44D
:101DA0003480F583EFF0801A908025E0FF74F82FDF
:101DB000F582E43480F583E014F080069080F6E04C
:101DC00004F09080F5E4F080189080F7740EF090A5
:101DD00080F6E4F0800B9080F7740EF09080F6E4CB
:101DE000F09080F5E0FFEFD39432400A9080F5E464
:101DF000F0D20D0219479080F5E004F00219472255
:101E0000908102EFF0908102E0FFEF1267951E1BB8
:101E1000001F790121330200002A03900003E0FF34
:101E20007E00908108EEF0A3EFF01200297B057A86
:101E30004079E1908108E0FEA3E0FFEF7803C3332F
:101E4000CE33CED8F9FFE42FF582EE347EF583E071
:101E5000FEA3E0FF908080EEF0A3EFF0120A047B77
:101E6000057A4079E6908108E0FEA3E0FFEF780371
:101E7000C333CE33CED8F9FF74022FF582EE347E11
:101E8000F583E0FEA3E0FF908080EEF0A3EFF01278
:101E90000A047B057A4079F4908108E0FEA3E0FF14
:101EA000EF7803C333CE33CED8F9FF74042FF58215
:101EB000EE347EF583E0FEA3E0FF908080EEF0A399
:101EC000EFF0120A047B057A417905908108E0FE63
:101ED000A3E0FFEF7803C333CE33CED8F9FF740607
:101EE0002FF582EE347EF583E0FEA3E0FF90808044
:101EF000EEF0A3EFF0120A04120E3CEF1267951FEA
:101F000040071F090B00002A03900003E0FF7E003A
:101F1000908108E0FCA3E0FDC3ED9FEC9E40067EAF
:101F2000007F008010908108E0FEA3E0FFEF240115
:101F3000FFEE3400FE908108EEF0A3EFF0021E2ABF
:101F4000908108E0FEA3E0FFD3EF9400EE940050F0
:101F500009900003E0FF7E008010908108E0FEA35E
:101F6000E0FFEF24FFFFEE34FFFE908108EEF0A3C8
:101F7000EFF0021E2A22021E2A907001E0FEA3E06A
:101F8000FF908108EEF0A3EFF0907000E0FF9081E9
:101F900003EFF0120029908104E4F0900002E0FFCA
:101FA000908104E0FEEED39F5050908104E0FF75D5
:101FB000F009EFA42401F582E5F03470F583E0FE2A
:101FC000A3E0FF908108E0FCA3E0FDEFB50523EE60
:101FD000B5041F908104E0FF75F009EFA42400F51B
:101FE00082E5F03470F583E0FF908103E0FEEF6E50
:101FF0006008908104E004F080A1900002E0FF906E
:102000008104E0FEEED39F400D7B057A41791612E4
:102010000A04120E3C227B057A417926908104E065
:10202000FF75F009EFA42401F582E5F03470F58323
:10203000E0FEA3E0FF908080EEF0A3EFF09081043B
:10204000E0FF75F009EFA42400F582E5F03470F5A7
:1020500083E0FF908082EFF0120A047B057A4179D9
:102060002F908104E0FF75F009EFA42403F582E5C9
:10207000F03470F583E0FEA3E0FF908080EEF0A3E3
:10208000EFF0120A047B057A41793C908104E0FF6D
:1020900075F009EFA42405F582E5F03470F583E0CE
:1020A000FEA3E0FF908080EEF0A3EFF0120A047B25
:1020B000057A41794C908104E0FF75F009EFA42482
:1020C00007F582E5F03470F583E0FEA3E0FF908031
:1020D00080EEF0A3EFF0120A04120E3CEF126795A7
:1020E000210D0720EA0B00002A03900002E0FF9078
:1020F0008104E0FEEEC39F40047F008008908104CD
:10210000E0FFEF04FF908104EFF0021F9390810441
:10211000E0FFEFD394005007900002E0FF800890AA
:102120008104E0FFEF14FF908104EFF0021F93227F
:10213000021F93900001E0FF75F00EEFA4243EF51E
:1021400082E5F03401F583EF2583F583E0FEA3E01B
:10215000FFEF4E7007908106E4F0800D900001E0E3
:10216000FFEF04FF908106EFF0900001E0FF75F0B3
:102170000EEFA42430F582E5F03400F583EF2583DB
:10218000F583E0FEA3E0FF908108EEF0A3EFF0906E
:102190000001E0FF75F00EEFA42432F582E5F03483
:1021A00000F583EF2583F583E0FF908103EFF09046
:1021B0000001E0FF75F00EEFA42433F582E5F03462
:1021C00000F583EF2583F583E0FF908105EFF012A2
:1021D0000029908104E4F0908104E0FFEFD3946340
:1021E0004003022264908104E0FF75F00EEFA42406
:1021F00030F582E5F03400F583EF2583F583E0FECA
:10220000A3E0FF908108E0FCA3E0FDEF6D7002EE1B
:102210006C7048908104E0FF75F00EEFA42432F555
:1022200082E5F03400F583EF2583F583E0FF9081AC
:1022300003E0FEEFB50624908104E0FF75F00EEF99
:10224000A42433F582E5F03400F583EF2583F5838C
:10225000E0FF908105E0FEEF6E6009908104E004EC
:10226000F00221D7908104E0FFEFD39463400D7B0F
:10227000057A41795C120A04120E3C22908107E42F
:10228000F0120029C20B908107E0FFEFC3940840D1
:102290000302271F7B057A41796A908104E0FF756C
:1022A000F00EEFA42432F582E5F03400F583EF253B
:1022B00083F583E0FF908080EFF0908104E0FF756C
:1022C000F00EEFA42433F582E5F03400F583EF251A
:1022D00083F583E0FF908081EFF0908104E0FF754B
:1022E000F00EEFA42430F582E5F03400F583EF25FD
:1022F00083F583E0FEA3E0FF908082EEF0A3EFF091
:10230000120A047F017D0012093D7B057A41797B29
:10231000908107E0FFEF75F003A4FFEF04FF9080CA
:1023200080EFF0908107E0FFEF75F003A4FFEF244A
:1023300002FF908081EFF0908107E0FFEF75F003DE
:10234000A4FFEF2403FF908082EFF0120A047F02C3
:102350007D0012093D7B057A417993908104E0FF6D
:1023600075F00EEFA42434F582E5F03400F583EF28
:102370002583F583C083C082908107E0FFD082D09F
:102380008375F006EF1266D2E0FEA3E0FF90808036
:10239000EEF0A3EFF0908104E0FF75F00EEFA424BF
:1023A00036F582E5F03400F583EF2583F583C083AD
:1023B000C082908107E0FFD082D08375F006EF12D3
:1023C00066D2E0FEA3E0FF908082EEF0A3EFF090F3
:1023D0008104E0FF75F00EEFA42438F582E5F034B7
:1023E00000F583EF2583F583C083C082908107E0E9
:1023F000FFD082D08375F006EF1266D2E0FEA3E034
:10240000FF908084EEF0A3EFF0120A047F037D00BA
:1024100012093D7B057A4179A3908104E0FF75F0B4
:102420000EEFA42464F582E5F03400F583EF2583F4
:10243000F583C083C082908107E0FFD082D083758E
:10244000F006EF1266D2E0FEA3E0FF908080EEF08F
:10245000A3EFF0908104E0FF75F00EEFA42466F581
:1024600082E5F03400F583EF2583F583C083C082D5
:10247000908107E0FFD082D08375F006EF1266D21C
:10248000E0FEA3E0FF908082EEF0A3EFF0908104E5
:10249000E0FF75F00EEFA42468F582E5F03400F556
:1024A00083EF2583F583C083C082908107E0FFD04E
:1024B00082D08375F006EF1266D2E0FEA3E0FF90B3
:1024C0008084EEF0A3EFF0120A047F047D0012096D
:1024D0003D7B057A4179B3908104E0FF75F00EEF02
:1024E000A42494F582E5F03400F583EF2583F58389
:1024F000C083C082908107E0FFD082D08375F00650
:10250000EF1266D2E0FEA3E0FF908080EEF0A3EF32
:10251000F0908104E0FF75F00EEFA42496F582E5BB
:10252000F03400F583EF2583F583C083C08290816A
:1025300007E0FFD082D08375F006EF1266D2E0FE8E
:10254000A3E0FF908082EEF0A3EFF0908104E0FF23
:1025500075F00EEFA42498F582E5F03400F583EFD2
:102560002583F583C083C082908107E0FFD082D0AD
:102570008375F006EF1266D2E0FEA3E0FF90808440
:10258000EEF0A3EFF0120A047F057D0012093D7BF7
:10259000057A4179C3908104E0FF75F00EEFA42421
:1025A000C4F582E5F03400F583EF2583F583C0831D
:1025B000C082908107E0FFD082D08375F006EF12D1
:1025C00066D2E0FEA3E0FF908080EEF0A3EFF090F3
:1025D0008104E0FF75F00EEFA424C6F582E5F03427
:1025E00000F583EF2583F583C083C082908107E0E7
:1025F000FFD082D08375F006EF1266D2E0FEA3E032
:10260000FF908082EEF0A3EFF0908104E0FF75F080
:102610000EEFA424C8F582E5F03400F583EF25839E
:10262000F583C083C082908107E0FFD082D083759C
:10263000F006EF1266D2E0FEA3E0FF908084EEF099
:10264000A3EFF0120A047F067D0012093D7B057A94
:102650004179D3908104E0FF75F00EEFA424F8F5E2
:1026600082E5F03400F583EF2583F583C083C082D3
:10267000908107E0FFD082D08375F006EF1266D21A
:10268000E0FEA3E0FFEF2438FFEE34FFFE908080F1
:10269000EEF0A3EFF0908104E0FF75F00EEFA424BC
:1026A000FAF582E5F03400F583EF2583F583C083E6
:1026B000C082908107E0FFD082D08375F006EF12D0
:1026C00066D2E0FEA3E0FFEF2438FFEE34FFFE9079
:1026D0008082EEF0A3EFF0908104E0FF75F00EEF42
:1026E000A424FCF582E5F03400F583EF2583F5831F
:1026F000C083C082908107E0FFD082D08375F0064E
:10270000EF1266D2E0FEA3E0FFEF2438FFEE34FFC5
:10271000FE908084EEF0A3EFF0120A0402296A7B97
:10272000057A4179E2908104E0FF75F00EEFA42470
:1027300032F582E5F03400F583EF2583F583E0FF81
:10274000908080EFF0908104E0FF75F00EEFA424FC
:1027500033F582E5F03400F583EF2583F583E0FF60
:10276000908081EFF0908104E0FF75F00EEFA424DB
:1027700030F582E5F03400F583EF2583F583E0FE44
:10278000A3E0FF908082EEF0A3EFF0120A047F0135
:102790007D0012093D7B057A4179FB908104E0FFC1
:1027A00075F00EEFA42428F582E5F03401F583EFEF
:1027B0002583F583E0FEA3E0FF908080EEF0A3EF99
:1027C000F0908104E0FF75F00EEFA4242AF582E575
:1027D000F03401F583EF2583F583E0FEA3E0FF905D
:1027E0008082EEF0A3EFF0120A047F027D0012094E
:1027F0003D7B057A427908908104E0FF75F00EEF89
:10280000A4242CF582E5F03401F583EF2583F583CC
:10281000E0FEA3E0FF908080EEF0A3EFF090810453
:10282000E0FF75F00EEFA4242EF582E5F03401F5FB
:1028300083EF2583F583E0FEA3E0FF908082EEF036
:10284000A3EFF0120A047F037D0012093D7B057A95
:10285000427915908104E0FF75F00EEFA42430F565
:1028600082E5F03401F583EF2583F583E0FEA3E0F4
:10287000FF908080EEF0A3EFF0908104E0FF75F010
:102880000EEFA42432F582E5F03401F583EF2583C1
:10289000F583E0FEA3E0FF908082EEF0A3EFF0125C
:1028A0000A047F047D0012093D7B057A427922905B
:1028B0008104E0FF75F00EEFA42434F582E5F034D6
:1028C00001F583EF2583F583E0FEA3E0FF90808090
:1028D000EEF0A3EFF0908104E0FF75F00EEFA4247A
:1028E00036F582E5F03401F583EF2583F583E0FECC
:1028F000A3E0FF908082EEF0A3EFF0120A047F05C0
:102900007D0012093D7B057A42792F908104E0FF1A
:1029100075F00EEFA424F4F582E5F03400F583EFB2
:102920002583F583E0FEA3E0FFEF2438FFEE34FFBC
:10293000FE908080EEF0A3EFF0908104E0FF75F050
:102940000EEFA424F6F582E5F03400F583EF25833D
:10295000F583E0FEA3E0FFEF2438FFEE34FFFE90A6
:102960008082EEF0A3EFF0120A04D20B120E3CEFBD
:1029700012679529AF0729800B29DD0D00002A0376
:10298000908106E0FFEF7007900001E0FF80027F7A
:1029900063908104E0FEEEC39F40047F00800890B6
:1029A0008104E0FFEF04FF908104EFF002228190A8
:1029B0008104E0FFEFD394005013908106E0FFEF15
:1029C0007007900001E0FF80027F6380089081041F
:1029D000E0FFEF14FF908104EFF002228190810765
:1029E000E0FFEFC3940840047F008008908107E077
:1029F000FFEF04FF908107EFF00222812202228183
:102A00000221CF2290810BE4F07B057A607902C02D
:102A100003C002C0017B027A81790CA801AC02AD2F
:102A200003D001D002D0037E007F0912647212002D
:102A3000297B057A427962120A0490810AE4F090B7
:102A4000810AE0FFEFC39403506E7B057A42796FF1
:102A5000120A0490810BE0FF90810AE0FEEEB507B8
:102A60000B7B057A427972120A0480097B057A424F
:102A70007975120A047B057A427978C003C002C0D6
:102A80000190810AE0FFEF75F003A4240CF582E4C5
:102A90003481F583E0FBA3E0FAA3E0F9908080EBBA
:102AA000F0A3EAF0A3E9F0D001D002D003120A04A7
:102AB00090810AE004F08087120E3CEF1267952A9D
:102AC000EB072ACC0B2B0A0D00002B1790810BE093
:102AD000FFEFC3940240047F00800890810BE0FF69
:102AE000EF04FF90810BEFF0022A2E90810BE0FFA4
:102AF000EFD3940050047F02800890810BE0FFEF39
:102B000014FF90810BEFF0022A2E90810BE0FF1250
:102B10001E002222022A2E22D210D20A90689AE0A7
:102B2000FEA3E0FFEF4E7004C20E8002D20E9000B2
:102B300001E0FFEF70047F008008900001E0FFEFEC
:102B400014FF908117EFF0FF908116EFF0200A0339
:102B5000022C5E1200297B057A42797B908116E077
:102B6000FF75F00EEFA42430F582E5F03400F58314
:102B7000EF2583F583E0FEA3E0FF908080EEF0A3D5
:102B8000EFF0908116E0FF75F00EEFA42432F5828D
:102B9000E5F03400F583EF2583F583E0FF90808234
:102BA000EFF0908116E0FF75F00EEFA42433F5826C
:102BB000E5F03400F583EF2583F583E0FF90808313
:102BC000EFF0120A04120E3CEF1267952C11072B3E
:102BD000D90B2C550D0000332F908116E004F030F6
:102BE0000E15908116E0FFEF64646003022B4D9098
:102BF0008116E4F0022B4D900001E0FF908116E079
:102C0000FEEED39F5003022B4D908116E4F0022B71
:102C10004D300E1F908116E0FFEFD39400400A90D4
:102C20008116E0FFEF14FF80027F63908116EFF0C2
:102C3000022B4D908116E0FFEFD39400400A908163
:102C400016E0FFEF14FF8005900001E0FF90811671
:102C5000EFF0022B4DC20A022B4D22022B4DD20A5D
:102C6000908116E0FF908117EFF0200A03022E8773
:102C70001200297B057A42799F908116E0FF75F05A
:102C80000EEFA42430F582E5F03400F583EF2583C0
:102C9000F583E0FEA3E0FF908080EEF0A3EFF090DC
:102CA0008116E0FF75F00EEFA42432F582E5F034D2
:102CB00000F583EF2583F583E0FF908082EFF090AD
:102CC0008116E0FF75F00EEFA42433F582E5F034B1
:102CD00000F583EF2583F583E0FF908083EFF0908C
:102CE0008117E0FF75F00EEFA42430F582E5F03493
:102CF00000F583EF2583F583E0FEA3E0FF90808459
:102D0000EEF0A3EFF0908117E0FF75F00EEFA42432
:102D100032F582E5F03400F583EF2583F583E0FF9B
:102D2000908086EFF0908117E0FF75F00EEFA424FD
:102D300033F582E5F03400F583EF2583F583E0FF7A
:102D4000908087EFF0120A04120E3CEF1267952D67
:102D5000ED072D5C0B2E7E0D0000332F300E699099
:102D60000001E0FF908116E0FEEED39F4035908198
:102D700017E0FFEFB46308908117E4F0022C6A902B
:102D80000001E0FF908117E0FEEEB5070D9081167F
:102D9000E0FF908117EFF0022C6A908117E004F0B9
:102DA000022C6A900001E0FF908117E0FEEEB5076B
:102DB00007908116E0FF8008908117E0FFEF04FF85
:102DC000908117EFF0022C6A900001E0FF908117CC
:102DD000E0FEEEB50707908116E0FF8008908117AE
:102DE000E0FFEF04FF908117EFF0022C6A300E69CC
:102DF000900001E0FF908116E0FEEED39F403590F9
:102E00008117E0FFEF70099081177463F0022C6A5C
:102E1000908116E0FF908117E0FEEEB5070D90005F
:102E200001E0FF908117EFF0022C6A908117E01407
:102E3000F0022C6A908116E0FF908117E0FEEEB55B
:102E40000707900001E0FF8008908117E0FFEF1472
:102E5000FF908117EFF0022C6A908116E0FF9081BD
:102E600017E0FEEEB50707900001E0FF80089081B3
:102E700017E0FFEF14FF908117EFF0022C6AC20AEF
:102E8000022C6A22022C6A1200297B057A4079D52D
:102E9000120A04C2127B057A4279DA120A0490817E
:102EA00016E0FF908115EFF07B057A4279EB908177
:102EB00015E0FF75F00EEFA42430F582E5F0340044
:102EC000F583EF2583F583E0FEA3E0FF908080EE9D
:102ED000F0A3EFF0908115E0FF75F00EEFA424321F
:102EE000F582E5F03400F583EF2583F583E0FF906C
:102EF0008082EFF0908115E0FF75F00EEFA424338F
:102F0000F582E5F03400F583EF2583F583E0FF904B
:102F10008083EFF0120A047B057A4279FC120A04DE
:102F2000908118E4F0908118E0FFEFC394184003FB
:102F300002307C7B057A43792C908118E0FFEF0406
:102F4000FF908080EFF0908115E0FF75F00EEFA408
:102F50002464F582E5F03400F583EF2583F583C022
:102F600083C082908118E0FFD082D08375F002EF99
:102F70001266D2E0FEA3E0FF908081EEF0A3EFF0B6
:102F8000908115E0FF75F00EEFA42434F582E5F092
:102F90003400F583EF2583F583C083C082908118C8
:102FA000E0FFD082D08375F002EF1266D2E0FEA37C
:102FB000E0FF908083EEF0A3EFF0908115E0FF75C5
:102FC000F00EEFA42494F582E5F03400F583EF25AC
:102FD00083F583C083C082908118E0FFD082D083C4
:102FE00075F002EF1266D2E0FEA3E0FF908085EE5E
:102FF000F0A3EFF0908115E0FF75F00EEFA424C46C
:10300000F582E5F03400F583EF2583F583C083C0B6
:1030100082908118E0FFD082D08375F002EF1266B3
:10302000D2E0FEA3E0FF908087EEF0A3EFF0908166
:1030300015E0FF75F00EEFA424F8F582E5F03400FA
:10304000F583EF2583F583C083C082908118E0FF6C
:10305000D082D08375F002EF1266D2E0FEA3E0FFCB
:10306000EF2438FFEE34FFFE908089EEF0A3EFF0FE
:10307000120A04908118E004F0022F257B057A43A0
:103080007949908115E0FF75F00EEFA4242CF582AC
:10309000E5F03401F583EF2583F583E0FEA3E0FF3F
:1030A000908080EEF0A3EFF0908115E0FF75F00EB8
:1030B000EFA42428F582E5F03401F583EF2583F5AC
:1030C00083E0FEA3E0FF908082EEF0A3EFF090811A
:1030D00015E0FF75F00EEFA42430F582E5F0340121
:1030E000F583EF2583F583E0FEA3E0FF908084EE77
:1030F000F0A3EFF0908115E0FF75F00EEFA42434FB
:10310000F582E5F03401F583EF2583F583E0FEA336
:10311000E0FF908086EEF0A3EFF0908115E0FF7560
:10312000F00EEFA424F4F582E5F03400F583EF25EA
:1031300083F583E0FEA3E0FFEF2438FFEE34FFFECB
:10314000908088EEF0A3EFF0120A047B057A4379B1
:103150006B908115E0FF75F00EEFA4242EF582E54B
:10316000F03401F583EF2583F583E0FEA3E0FF90C3
:103170008080EEF0A3EFF0908115E0FF75F00EEF88
:10318000A4242AF582E5F03401F583EF2583F58345
:10319000E0FEA3E0FF908082EEF0A3EFF0908115B7
:1031A000E0FF75F00EEFA42432F582E5F03401F56E
:1031B00083EF2583F583E0FEA3E0FF908084EEF0AB
:1031C000A3EFF0908115E0FF75F00EEFA42436F523
:1031D00082E5F03401F583EF2583F583E0FEA3E07B
:1031E000FF908086EEF0A3EFF0908115E0FF75F080
:1031F0000EEFA424F6F582E5F03400F583EF258385
:10320000F583E0FEA3E0FFEF2438FFEE34FFFE90ED
:103210008088EEF0A3EFF0120A047B057A43798DE3
:10322000908115E0FF75F00EEFA4243AF582E5F0E9
:103230003401F583EF2583F583E0FEA3E0FF908062
:1032400080EEF0A3EFF0908115E0FF75F00EEFA493
:10325000243CF582E5F03401F583EF2583F583E026
:10326000FEA3E0FF908082EEF0A3EFF0908115E0E6
:10327000FF75F00EEFA42438F582E5F03401F583F4
:10328000EF2583F583E0FEA3E0FF908084EEF0A3BA
:10329000EFF0120A04908117E0FF908116E0FEEE35
:1032A000D39F501D908115E004F0908117E0FF90AE
:1032B0008115E0FEEED39F5003022EA88030022E2F
:1032C000A8908117E0FF908115E0FEEE6F601F90DF
:1032D0008115E0FFEFC3946340047F008008908174
:1032E00015E0FFEF04FF908115EFF0022EA87B059B
:1032F0007A4379B690800AE0FEA3E0FF908080EEEA
:10330000F0A3EFF0908008E0FF908082EFF09080D3
:1033100007E0FF908083EFF090800CE0FF908084C6
:10332000EFF0908065E0FF908085EFF0120A0422B4
:1033300090811BE4F0A3E4F012002990811BE0FED1
:10334000A3E0FF905F3E75F031EF1266D2EE75F0AC
:1033500031A42583F583E493FFEF64016003023415
:103360000090811BE0FEA3E0FF7C007D311265022E
:10337000743F2FF9745F3EFA7B05C003C002C001A1
:1033800090811BE0FEA3E0FF905F6375F031EF12C8
:1033900066D2EE75F031A42583F583E493FB7401C6
:1033A00093FA740293F9C003C002C00190811BE03C
:1033B000FEA3E0FF905F6675F031EF1266D2EE7506
:1033C000F031A42583F583E493FB740193FA74022E
:1033D00093F91264A4FF75F003EFA4F58285F083DE
:1033E000D001D002D003126700908080EBF0A3EAF6
:1033F000F0A3E9F0D001D002D003120A0402351282
:1034000090811BE0FEA3E0FF7C007D311265027419
:103410003F2FF9745F3EFA7B05C003C002C00190E4
:10342000811BE0FEA3E0FF905F6675F031EF12664E
:10343000D2EE75F031A42583F583E493FB740193F8
:10344000FA740293F91264A4FF908080EFF09081E7
:103450001BE0FEA3E0FF905F6975F031EF1266D2CA
:10346000EE75F031A42583F583E493FB740193FAA0
:10347000740293F91264A4FF908081EFF090811B95
:10348000E0FEA3E0FF905F3E75F031EF1266D2EEF2
:1034900075F031A42583F583E493FFEFB4033690F0
:1034A000811BE0FEA3E0FF905F6C75F031EF1266C8
:1034B000D2EE75F031A42583F583E493FB74019378
:1034C000FA740293F91264A4FF7E00EF24BCFFEEAD
:1034D0003407FE802C90811BE0FEA3E0FF905F6C20
:1034E00075F031EF1266D2EE75F031A42583F583C5
:1034F000E493FB740193FA740293F91264A4FF7EBF
:1035000000908082EEF0A3EFF0D001D002D0031241
:103510000A04120E3C7E00908119EEF0A3EFF090A9
:103520008119E0FEA3E0FFEF8EF01267BB356A0061
:1035300007353D000B3598000D0000361690811CB4
:10354000E004F0700690811BE004F090811BE0FE27
:10355000A3E0FFD3EF9403EE9400500302333890BE
:10356000811BE4F0A3E4F002333890811BE0FEA35A
:10357000E0FFD3EF9400EE9400401190811CE02412
:10358000FFF090811BE034FFF002333890811BE4A0
:10359000F0A37403F002333890811BE0FEA3E0FF38
:1035A000EF64024E700F122A0490811BE4F0A374A2
:1035B00002F002333890811BE0FEA3E0FFEF6403CA
:1035C0004E7011122B1890811BE4F0A37403F0D2FB
:1035D0001202333890811BE0FEA3E0FF7C007D31B6
:1035E000126502743E2FF9745F3EFA7B05C003C07A
:1035F00002C0017B027A8079C4A801AC02AD03D07D
:1036000001D002D0037E007F3112647212189C0236
:10361000333822023338227B057A4379D9120A04DF
:10362000120E3CEF640D6003023A5A90811DE4F0E3
:1036300090811DE0FFEFC39406400302390A908198
:103640001DE0FF75F004EFA4240BF582E5F03400D3
:10365000F58312667990811E126695D20C200C03B8
:103660000239011200297B057A44791AC003C0028D
:10367000C00190811DE0FFEF75F003A4240EF582D8
:10368000E4345FF583E493FB740193FA740293F9D5
:10369000908080EBF0A3EAF0A3E9F090811E12661F
:1036A00079908083126695D001D002D003120A046B
:1036B000120E3CEF12679538030737080B36E60DFC
:1036C00036C70E0000365D90811DE0FFEF25E02536
:1036D000E02420F582E4345FF58312668590811E34
:1036E00012669502365D90811E12667990811DE00A
:1036F000FB75F004EBA4240BF582E5F03400F583B0
:10370000126695C20C02365D90811E1266791267B0
:10371000327F387ED17DB77C1712602E90811E12C9
:1037200066957F007D0012093D7B057A44791AC0B9
:1037300003C002C00190811DE0FFEF75F003A424D7
:103740000EF582E4345FF583E493FB740193FA741D
:103750000293F9908080EBF0A3EAF0A3E9F0908166
:103760001E126679908083126695D001D002D00334
:10377000120A047FF47E01120D8B120DFAEF640B16
:10378000600302365D90811E1266791267327F38BF
:103790007ED17DB77C1712602E90811E1266957FB8
:1037A000007D0012093D7B057A44791AC003C002EE
:1037B000C00190811DE0FFEF75F003A4240EF58297
:1037C000E4345FF583E493FB740193FA740293F994
:1037D000908080EBF0A3EAF0A3E9F090811E1266DE
:1037E00079908083126695D001D002D003120A042A
:1037F00043871075FF007F647E00120D8B02377ABD
:1038000002365D7F387ED17DB77C1712673290819A
:103810001E12667912602A90811E1266957F007DC5
:103820000012093D7B057A44791AC003C002C00129
:1038300090811DE0FFEF75F003A4240EF582E434BF
:103840005FF583E493FB740193FA740293F990801B
:1038500080EBF0A3EAF0A3E9F090811E1266799064
:103860008083126695D001D002D003120A047FF43F
:103870007E01120D8B120DFAEF6407600302365DB4
:103880007F387ED17DB77C1712673290811E126619
:103890007912602A90811E1266957F007D001209C0
:1038A0003D7B057A44791AC003C002C00190811D96
:1038B000E0FFEF75F003A4240EF582E4345FF58396
:1038C000E493FB740193FA740293F9908080EBF017
:1038D000A3EAF0A3E9F090811E126679908083122A
:1038E0006695D001D002D003120A0443871075FFF9
:1038F000007F647E00120D8B02387502365D023641
:103900005D90811DE004F00236301200297B057ABB
:1039100044794F120A04120E3CEF640D6003023A20
:103920005A1200297B057A44797E120A04120E3C51
:10393000EF640D6003023A5A1200297B057A44793C
:10394000AF120A0490811EE4F0A37430F07F007E71
:10395000807D007C0012673290811EE0FEA3E0FFB4
:10396000E4FCFD12662C502490811EE0FEA3E0FFD3
:103970008F828E83E4F043871075FF0090811FE0F3
:1039800004F0700690811EE004F080C1900002E413
:10399000F0900001E4F0900003E4F0908809E0FF6B
:1039A0007E00EF24BCFFEE3407FE900001E0FD75C1
:1039B000F00EEDA42430F582E5F03400F583ED251A
:1039C00083F583EEF0A3EFF0900002E0FD75F009BF
:1039D000EDA42401F582E5F03470F583EEF0A3EF59
:1039E000F0900003E0FD75F008EDA42400F582E5F9
:1039F000F0347EF583EEF0A3EFF0908808E0FF90BE
:103A00000001E0FE75F00EEEA42432F582E5F034FC
:103A100000F583EE2583F583EFF0FF900002E0FED2
:103A200075F009EEA42400F582E5F03470F583EF1B
:103A3000F0908807E0FF900001E0FE75F00EEEA424
:103A40002433F582E5F03400F583EE2583F583EF2A
:103A5000F09000007455F012002922D212D20B907F
:103A60008025740AF07F611200F812095C120DFAC9
:103A7000EFB40E031236171200297B057A4479CE73
:103A8000120A047F107E27120D8B900000E0FFEFDA
:103A9000645560121200297B057A4479E4120A0405
:103AA000120E3C120029908809E0FF7E00EF24BC32
:103AB000FFEE3407FE900003E0FD75F008EDA4244E
:103AC00000F582E5F0347EF583E0FCA3E0FDEF6DC8
:103AD0007002EE6C602E900003E004F0908809E024
:103AE000FF7E00EF24BCFFEE3407FE900003E0FDF4
:103AF00075F008EDA42400F582E5F0347EF583EE40
:103B0000F0A3EFF0908809E0FF7E00EF24BCFFEE09
